{
	"lottery.sol": {
		"Lottery": {
			"abi": [
				{
					"inputs": [],
					"stateMutability": "nonpayable",
					"type": "constructor"
				},
				{
					"inputs": [],
					"name": "endTime",
					"outputs": [
						{
							"internalType": "uint256",
							"name": "",
							"type": "uint256"
						}
					],
					"stateMutability": "view",
					"type": "function"
				},
				{
					"inputs": [],
					"name": "getBalance",
					"outputs": [
						{
							"internalType": "uint256",
							"name": "",
							"type": "uint256"
						}
					],
					"stateMutability": "view",
					"type": "function"
				},
				{
					"inputs": [
						{
							"internalType": "address",
							"name": "",
							"type": "address"
						}
					],
					"name": "hasParticipated",
					"outputs": [
						{
							"internalType": "bool",
							"name": "",
							"type": "bool"
						}
					],
					"stateMutability": "view",
					"type": "function"
				},
				{
					"inputs": [],
					"name": "manager",
					"outputs": [
						{
							"internalType": "address",
							"name": "",
							"type": "address"
						}
					],
					"stateMutability": "view",
					"type": "function"
				},
				{
					"inputs": [
						{
							"internalType": "uint256",
							"name": "",
							"type": "uint256"
						}
					],
					"name": "participants",
					"outputs": [
						{
							"internalType": "address payable",
							"name": "",
							"type": "address"
						}
					],
					"stateMutability": "view",
					"type": "function"
				},
				{
					"inputs": [],
					"name": "random",
					"outputs": [
						{
							"internalType": "uint256",
							"name": "",
							"type": "uint256"
						}
					],
					"stateMutability": "view",
					"type": "function"
				},
				{
					"inputs": [],
					"name": "selectWinner",
					"outputs": [],
					"stateMutability": "nonpayable",
					"type": "function"
				},
				{
					"inputs": [
						{
							"internalType": "uint256",
							"name": "durationInMinutes",
							"type": "uint256"
						}
					],
					"name": "setLotteryPeriod",
					"outputs": [],
					"stateMutability": "nonpayable",
					"type": "function"
				},
				{
					"inputs": [],
					"name": "startTime",
					"outputs": [
						{
							"internalType": "uint256",
							"name": "",
							"type": "uint256"
						}
					],
					"stateMutability": "view",
					"type": "function"
				},
				{
					"stateMutability": "payable",
					"type": "receive"
				}
			],
			"devdoc": {
				"kind": "dev",
				"methods": {},
				"version": 1
			},
			"evm": {
				"assembly": "    /* \"lottery.sol\":58:2101  contract Lottery {... */\n  mstore(0x40, 0x80)\n    /* \"lottery.sol\":265:316  constructor() {... */\n  callvalue\n  dup1\n  iszero\n  tag_1\n  jumpi\n  0x00\n  dup1\n  revert\ntag_1:\n  pop\n    /* \"lottery.sol\":299:309  msg.sender */\n  caller\n    /* \"lottery.sol\":289:296  manager */\n  0x00\n  dup1\n    /* \"lottery.sol\":289:309  manager = msg.sender */\n  0x0100\n  exp\n  dup2\n  sload\n  dup2\n  0xffffffffffffffffffffffffffffffffffffffff\n  mul\n  not\n  and\n  swap1\n  dup4\n  0xffffffffffffffffffffffffffffffffffffffff\n  and\n  mul\n  or\n  swap1\n  sstore\n  pop\n    /* \"lottery.sol\":58:2101  contract Lottery {... */\n  dataSize(sub_0)\n  dup1\n  dataOffset(sub_0)\n  0x00\n  codecopy\n  0x00\n  return\nstop\n\nsub_0: assembly {\n        /* \"lottery.sol\":58:2101  contract Lottery {... */\n      mstore(0x40, 0x80)\n      jumpi(tag_1, lt(calldatasize, 0x04))\n      shr(0xe0, calldataload(0x00))\n      dup1\n      0x481c6a75\n      gt\n      tag_12\n      jumpi\n      dup1\n      0x481c6a75\n      eq\n      tag_7\n      jumpi\n      dup1\n      0x5ec01e4d\n      eq\n      tag_8\n      jumpi\n      dup1\n      0x78e97925\n      eq\n      tag_9\n      jumpi\n      dup1\n      0xb4fb3ee3\n      eq\n      tag_10\n      jumpi\n      dup1\n      0xd99c69e6\n      eq\n      tag_11\n      jumpi\n      jump(tag_2)\n    tag_12:\n      dup1\n      0x12065fe0\n      eq\n      tag_3\n      jumpi\n      dup1\n      0x3197cbb6\n      eq\n      tag_4\n      jumpi\n      dup1\n      0x33a99e04\n      eq\n      tag_5\n      jumpi\n      dup1\n      0x35c1d349\n      eq\n      tag_6\n      jumpi\n      jump(tag_2)\n    tag_1:\n      jumpi(tag_2, calldatasize)\n        /* \"lottery.sol\":727:736  startTime */\n      sload(0x03)\n        /* \"lottery.sol\":708:723  block.timestamp */\n      timestamp\n        /* \"lottery.sol\":708:736  block.timestamp >= startTime */\n      lt\n      iszero\n        /* \"lottery.sol\":700:768  require(block.timestamp >= startTime, \"Lottery has not started yet\") */\n      tag_15\n      jumpi\n      mload(0x40)\n      0x08c379a000000000000000000000000000000000000000000000000000000000\n      dup2\n      mstore\n      0x04\n      add\n      tag_16\n      swap1\n      tag_17\n      jump\t// in\n    tag_16:\n      mload(0x40)\n      dup1\n      swap2\n      sub\n      swap1\n      revert\n    tag_15:\n        /* \"lottery.sol\":805:812  endTime */\n      sload(0x04)\n        /* \"lottery.sol\":786:801  block.timestamp */\n      timestamp\n        /* \"lottery.sol\":786:812  block.timestamp <= endTime */\n      gt\n      iszero\n        /* \"lottery.sol\":778:834  require(block.timestamp <= endTime, \"Lottery has ended\") */\n      tag_18\n      jumpi\n      mload(0x40)\n      0x08c379a000000000000000000000000000000000000000000000000000000000\n      dup2\n      mstore\n      0x04\n      add\n      tag_19\n      swap1\n      tag_20\n      jump\t// in\n    tag_19:\n      mload(0x40)\n      dup1\n      swap2\n      sub\n      swap1\n      revert\n    tag_18:\n        /* \"lottery.sol\":866:873  1 ether */\n      0x0de0b6b3a7640000\n        /* \"lottery.sol\":853:862  msg.value */\n      callvalue\n        /* \"lottery.sol\":853:873  msg.value == 1 ether */\n      eq\n        /* \"lottery.sol\":845:874  require(msg.value == 1 ether) */\n      tag_21\n      jumpi\n      0x00\n      dup1\n      revert\n    tag_21:\n        /* \"lottery.sol\":893:908  hasParticipated */\n      0x02\n        /* \"lottery.sol\":893:920  hasParticipated[msg.sender] */\n      0x00\n        /* \"lottery.sol\":909:919  msg.sender */\n      caller\n        /* \"lottery.sol\":893:920  hasParticipated[msg.sender] */\n      0xffffffffffffffffffffffffffffffffffffffff\n      and\n      0xffffffffffffffffffffffffffffffffffffffff\n      and\n      dup2\n      mstore\n      0x20\n      add\n      swap1\n      dup2\n      mstore\n      0x20\n      add\n      0x00\n      keccak256\n      0x00\n      swap1\n      sload\n      swap1\n      0x0100\n      exp\n      swap1\n      div\n      0xff\n      and\n        /* \"lottery.sol\":892:920  !hasParticipated[msg.sender] */\n      iszero\n        /* \"lottery.sol\":884:921  require(!hasParticipated[msg.sender]) */\n      tag_22\n      jumpi\n      0x00\n      dup1\n      revert\n    tag_22:\n        /* \"lottery.sol\":932:944  participants */\n      0x01\n        /* \"lottery.sol\":958:968  msg.sender */\n      caller\n        /* \"lottery.sol\":932:970  participants.push(payable(msg.sender)) */\n      swap1\n      dup1\n      0x01\n      dup2\n      sload\n      add\n      dup1\n      dup3\n      sstore\n      dup1\n      swap2\n      pop\n      pop\n      0x01\n      swap1\n      sub\n      swap1\n      0x00\n      mstore\n      keccak256(0x00, 0x20)\n      add\n      0x00\n      swap1\n      swap2\n      swap1\n      swap2\n      swap1\n      swap2\n      0x0100\n      exp\n      dup2\n      sload\n      dup2\n      0xffffffffffffffffffffffffffffffffffffffff\n      mul\n      not\n      and\n      swap1\n      dup4\n      0xffffffffffffffffffffffffffffffffffffffff\n      and\n      mul\n      or\n      swap1\n      sstore\n      pop\n        /* \"lottery.sol\":1010:1014  true */\n      0x01\n        /* \"lottery.sol\":980:995  hasParticipated */\n      0x02\n        /* \"lottery.sol\":980:1007  hasParticipated[msg.sender] */\n      0x00\n        /* \"lottery.sol\":996:1006  msg.sender */\n      caller\n        /* \"lottery.sol\":980:1007  hasParticipated[msg.sender] */\n      0xffffffffffffffffffffffffffffffffffffffff\n      and\n      0xffffffffffffffffffffffffffffffffffffffff\n      and\n      dup2\n      mstore\n      0x20\n      add\n      swap1\n      dup2\n      mstore\n      0x20\n      add\n      0x00\n      keccak256\n      0x00\n        /* \"lottery.sol\":980:1014  hasParticipated[msg.sender] = true */\n      0x0100\n      exp\n      dup2\n      sload\n      dup2\n      0xff\n      mul\n      not\n      and\n      swap1\n      dup4\n      iszero\n      iszero\n      mul\n      or\n      swap1\n      sstore\n      stop\n        /* \"lottery.sol\":58:2101  contract Lottery {... */\n    tag_2:\n      0x00\n      dup1\n      revert\n        /* \"lottery.sol\":1027:1164  function getBalance() public view returns (uint256) {... */\n    tag_3:\n      callvalue\n      dup1\n      iszero\n      tag_24\n      jumpi\n      0x00\n      dup1\n      revert\n    tag_24:\n      pop\n      tag_25\n      tag_26\n      jump\t// in\n    tag_25:\n      mload(0x40)\n      tag_27\n      swap2\n      swap1\n      tag_28\n      jump\t// in\n    tag_27:\n      mload(0x40)\n      dup1\n      swap2\n      sub\n      swap1\n      return\n        /* \"lottery.sol\":236:258  uint256 public endTime */\n    tag_4:\n      callvalue\n      dup1\n      iszero\n      tag_29\n      jumpi\n      0x00\n      dup1\n      revert\n    tag_29:\n      pop\n      tag_30\n      tag_31\n      jump\t// in\n    tag_30:\n      mload(0x40)\n      tag_32\n      swap2\n      swap1\n      tag_28\n      jump\t// in\n    tag_32:\n      mload(0x40)\n      dup1\n      swap2\n      sub\n      swap1\n      return\n        /* \"lottery.sol\":1335:1924  function selectWinner() public {... */\n    tag_5:\n      callvalue\n      dup1\n      iszero\n      tag_33\n      jumpi\n      0x00\n      dup1\n      revert\n    tag_33:\n      pop\n      tag_34\n      tag_35\n      jump\t// in\n    tag_34:\n      stop\n        /* \"lottery.sol\":109:146  address payable[] public participants */\n    tag_6:\n      callvalue\n      dup1\n      iszero\n      tag_36\n      jumpi\n      0x00\n      dup1\n      revert\n    tag_36:\n      pop\n      tag_37\n      0x04\n      dup1\n      calldatasize\n      sub\n      dup2\n      add\n      swap1\n      tag_38\n      swap2\n      swap1\n      tag_39\n      jump\t// in\n    tag_38:\n      tag_40\n      jump\t// in\n    tag_37:\n      mload(0x40)\n      tag_41\n      swap2\n      swap1\n      tag_42\n      jump\t// in\n    tag_41:\n      mload(0x40)\n      dup1\n      swap2\n      sub\n      swap1\n      return\n        /* \"lottery.sol\":81:103  address public manager */\n    tag_7:\n      callvalue\n      dup1\n      iszero\n      tag_43\n      jumpi\n      0x00\n      dup1\n      revert\n    tag_43:\n      pop\n      tag_44\n      tag_45\n      jump\t// in\n    tag_44:\n      mload(0x40)\n      tag_46\n      swap2\n      swap1\n      tag_47\n      jump\t// in\n    tag_46:\n      mload(0x40)\n      dup1\n      swap2\n      sub\n      swap1\n      return\n        /* \"lottery.sol\":1170:1328  function random() public view returns (uint) {... */\n    tag_8:\n      callvalue\n      dup1\n      iszero\n      tag_48\n      jumpi\n      0x00\n      dup1\n      revert\n    tag_48:\n      pop\n      tag_49\n      tag_50\n      jump\t// in\n    tag_49:\n      mload(0x40)\n      tag_51\n      swap2\n      swap1\n      tag_28\n      jump\t// in\n    tag_51:\n      mload(0x40)\n      dup1\n      swap2\n      sub\n      swap1\n      return\n        /* \"lottery.sol\":206:230  uint256 public startTime */\n    tag_9:\n      callvalue\n      dup1\n      iszero\n      tag_52\n      jumpi\n      0x00\n      dup1\n      revert\n    tag_52:\n      pop\n      tag_53\n      tag_54\n      jump\t// in\n    tag_53:\n      mload(0x40)\n      tag_55\n      swap2\n      swap1\n      tag_28\n      jump\t// in\n    tag_55:\n      mload(0x40)\n      dup1\n      swap2\n      sub\n      swap1\n      return\n        /* \"lottery.sol\":152:199  mapping(address => bool) public hasParticipated */\n    tag_10:\n      callvalue\n      dup1\n      iszero\n      tag_56\n      jumpi\n      0x00\n      dup1\n      revert\n    tag_56:\n      pop\n      tag_57\n      0x04\n      dup1\n      calldatasize\n      sub\n      dup2\n      add\n      swap1\n      tag_58\n      swap2\n      swap1\n      tag_59\n      jump\t// in\n    tag_58:\n      tag_60\n      jump\t// in\n    tag_57:\n      mload(0x40)\n      tag_61\n      swap2\n      swap1\n      tag_62\n      jump\t// in\n    tag_61:\n      mload(0x40)\n      dup1\n      swap2\n      sub\n      swap1\n      return\n        /* \"lottery.sol\":322:657  function setLotteryPeriod(uint256 durationInMinutes) public {... */\n    tag_11:\n      callvalue\n      dup1\n      iszero\n      tag_63\n      jumpi\n      0x00\n      dup1\n      revert\n    tag_63:\n      pop\n      tag_64\n      0x04\n      dup1\n      calldatasize\n      sub\n      dup2\n      add\n      swap1\n      tag_65\n      swap2\n      swap1\n      tag_39\n      jump\t// in\n    tag_65:\n      tag_66\n      jump\t// in\n    tag_64:\n      stop\n        /* \"lottery.sol\":1027:1164  function getBalance() public view returns (uint256) {... */\n    tag_26:\n        /* \"lottery.sol\":1070:1077  uint256 */\n      0x00\n        /* \"lottery.sol\":1111:1118  manager */\n      dup1\n      0x00\n      swap1\n      sload\n      swap1\n      0x0100\n      exp\n      swap1\n      div\n      0xffffffffffffffffffffffffffffffffffffffff\n      and\n        /* \"lottery.sol\":1097:1118  msg.sender == manager */\n      0xffffffffffffffffffffffffffffffffffffffff\n      and\n        /* \"lottery.sol\":1097:1107  msg.sender */\n      caller\n        /* \"lottery.sol\":1097:1118  msg.sender == manager */\n      0xffffffffffffffffffffffffffffffffffffffff\n      and\n      eq\n        /* \"lottery.sol\":1089:1119  require(msg.sender == manager) */\n      tag_68\n      jumpi\n      0x00\n      dup1\n      revert\n    tag_68:\n        /* \"lottery.sol\":1136:1157  address(this).balance */\n      selfbalance\n        /* \"lottery.sol\":1129:1157  return address(this).balance */\n      swap1\n      pop\n        /* \"lottery.sol\":1027:1164  function getBalance() public view returns (uint256) {... */\n      swap1\n      jump\t// out\n        /* \"lottery.sol\":236:258  uint256 public endTime */\n    tag_31:\n      sload(0x04)\n      dup2\n      jump\t// out\n        /* \"lottery.sol\":1335:1924  function selectWinner() public {... */\n    tag_35:\n        /* \"lottery.sol\":1398:1405  manager */\n      0x00\n      dup1\n      sload\n      swap1\n      0x0100\n      exp\n      swap1\n      div\n      0xffffffffffffffffffffffffffffffffffffffff\n      and\n        /* \"lottery.sol\":1384:1405  msg.sender == manager */\n      0xffffffffffffffffffffffffffffffffffffffff\n      and\n        /* \"lottery.sol\":1384:1394  msg.sender */\n      caller\n        /* \"lottery.sol\":1384:1405  msg.sender == manager */\n      0xffffffffffffffffffffffffffffffffffffffff\n      and\n      eq\n        /* \"lottery.sol\":1376:1406  require(msg.sender == manager) */\n      tag_70\n      jumpi\n      0x00\n      dup1\n      revert\n    tag_70:\n        /* \"lottery.sol\":1442:1449  endTime */\n      sload(0x04)\n        /* \"lottery.sol\":1424:1439  block.timestamp */\n      timestamp\n        /* \"lottery.sol\":1424:1449  block.timestamp > endTime */\n      gt\n        /* \"lottery.sol\":1416:1486  require(block.timestamp > endTime, \"Lottery period has not ended yet\") */\n      tag_71\n      jumpi\n      mload(0x40)\n      0x08c379a000000000000000000000000000000000000000000000000000000000\n      dup2\n      mstore\n      0x04\n      add\n      tag_72\n      swap1\n      tag_73\n      jump\t// in\n    tag_72:\n      mload(0x40)\n      dup1\n      swap2\n      sub\n      swap1\n      revert\n    tag_71:\n        /* \"lottery.sol\":1527:1528  3 */\n      0x03\n        /* \"lottery.sol\":1504:1516  participants */\n      0x01\n        /* \"lottery.sol\":1504:1523  participants.length */\n      dup1\n      sload\n      swap1\n      pop\n        /* \"lottery.sol\":1504:1528  participants.length >= 3 */\n      lt\n      iszero\n        /* \"lottery.sol\":1496:1565  require(participants.length >= 3, \"At least 3 participants required\") */\n      tag_74\n      jumpi\n      mload(0x40)\n      0x08c379a000000000000000000000000000000000000000000000000000000000\n      dup2\n      mstore\n      0x04\n      add\n      tag_75\n      swap1\n      tag_76\n      jump\t// in\n    tag_75:\n      mload(0x40)\n      dup1\n      swap2\n      sub\n      swap1\n      revert\n    tag_74:\n        /* \"lottery.sol\":1598:1605  manager */\n      0x00\n      dup1\n      sload\n      swap1\n      0x0100\n      exp\n      swap1\n      div\n      0xffffffffffffffffffffffffffffffffffffffff\n      and\n        /* \"lottery.sol\":1584:1605  msg.sender == manager */\n      0xffffffffffffffffffffffffffffffffffffffff\n      and\n        /* \"lottery.sol\":1584:1594  msg.sender */\n      caller\n        /* \"lottery.sol\":1584:1605  msg.sender == manager */\n      0xffffffffffffffffffffffffffffffffffffffff\n      and\n      eq\n        /* \"lottery.sol\":1576:1606  require(msg.sender == manager) */\n      tag_77\n      jumpi\n      0x00\n      dup1\n      revert\n    tag_77:\n        /* \"lottery.sol\":1647:1648  3 */\n      0x03\n        /* \"lottery.sol\":1624:1636  participants */\n      0x01\n        /* \"lottery.sol\":1624:1643  participants.length */\n      dup1\n      sload\n      swap1\n      pop\n        /* \"lottery.sol\":1624:1648  participants.length >= 3 */\n      lt\n      iszero\n        /* \"lottery.sol\":1616:1649  require(participants.length >= 3) */\n      tag_78\n      jumpi\n      0x00\n      dup1\n      revert\n    tag_78:\n        /* \"lottery.sol\":1659:1668  uint256 r */\n      0x00\n        /* \"lottery.sol\":1671:1679  random() */\n      tag_79\n        /* \"lottery.sol\":1671:1677  random */\n      tag_50\n        /* \"lottery.sol\":1671:1679  random() */\n      jump\t// in\n    tag_79:\n        /* \"lottery.sol\":1659:1679  uint256 r = random() */\n      swap1\n      pop\n        /* \"lottery.sol\":1689:1711  address payable winner */\n      0x00\n        /* \"lottery.sol\":1721:1734  uint256 index */\n      dup1\n        /* \"lottery.sol\":1741:1753  participants */\n      0x01\n        /* \"lottery.sol\":1741:1760  participants.length */\n      dup1\n      sload\n      swap1\n      pop\n        /* \"lottery.sol\":1737:1738  r */\n      dup4\n        /* \"lottery.sol\":1737:1760  r % participants.length */\n      tag_80\n      swap2\n      swap1\n      tag_81\n      jump\t// in\n    tag_80:\n        /* \"lottery.sol\":1721:1760  uint256 index = r % participants.length */\n      swap1\n      pop\n        /* \"lottery.sol\":1780:1792  participants */\n      0x01\n        /* \"lottery.sol\":1793:1798  index */\n      dup2\n        /* \"lottery.sol\":1780:1799  participants[index] */\n      dup2\n      sload\n      dup2\n      lt\n      tag_82\n      jumpi\n      tag_83\n      tag_84\n      jump\t// in\n    tag_83:\n    tag_82:\n      swap1\n      0x00\n      mstore\n      keccak256(0x00, 0x20)\n      add\n      0x00\n      swap1\n      sload\n      swap1\n      0x0100\n      exp\n      swap1\n      div\n      0xffffffffffffffffffffffffffffffffffffffff\n      and\n        /* \"lottery.sol\":1771:1799  winner = participants[index] */\n      swap2\n      pop\n        /* \"lottery.sol\":1809:1815  winner */\n      dup2\n        /* \"lottery.sol\":1809:1824  winner.transfer */\n      0xffffffffffffffffffffffffffffffffffffffff\n      and\n        /* \"lottery.sol\":1809:1838  winner.transfer(getBalance()) */\n      0x08fc\n        /* \"lottery.sol\":1825:1837  getBalance() */\n      tag_86\n        /* \"lottery.sol\":1825:1835  getBalance */\n      tag_26\n        /* \"lottery.sol\":1825:1837  getBalance() */\n      jump\t// in\n    tag_86:\n        /* \"lottery.sol\":1809:1838  winner.transfer(getBalance()) */\n      swap1\n      dup2\n      iszero\n      mul\n      swap1\n      mload(0x40)\n      0x00\n      mload(0x40)\n      dup1\n      dup4\n      sub\n      dup2\n      dup6\n      dup9\n      dup9\n      call\n      swap4\n      pop\n      pop\n      pop\n      pop\n      iszero\n      dup1\n      iszero\n      tag_88\n      jumpi\n      returndatasize\n      0x00\n      dup1\n      returndatacopy\n      revert(0x00, returndatasize)\n    tag_88:\n      pop\n        /* \"lottery.sol\":1885:1886  0 */\n      0x00\n        /* \"lottery.sol\":1863:1887  new address payable[](0) */\n      0xffffffffffffffff\n      dup2\n      gt\n      iszero\n      tag_89\n      jumpi\n      tag_90\n      tag_91\n      jump\t// in\n    tag_90:\n    tag_89:\n      mload(0x40)\n      swap1\n      dup1\n      dup3\n      mstore\n      dup1\n      0x20\n      mul\n      0x20\n      add\n      dup3\n      add\n      0x40\n      mstore\n      dup1\n      iszero\n      tag_92\n      jumpi\n      dup2\n      0x20\n      add\n      0x20\n      dup3\n      mul\n      dup1\n      calldatasize\n      dup4\n      calldatacopy\n      dup1\n      dup3\n      add\n      swap2\n      pop\n      pop\n      swap1\n      pop\n    tag_92:\n      pop\n        /* \"lottery.sol\":1848:1860  participants */\n      0x01\n        /* \"lottery.sol\":1848:1887  participants = new address payable[](0) */\n      swap1\n      dup1\n      mload\n      swap1\n      0x20\n      add\n      swap1\n      tag_93\n      swap3\n      swap2\n      swap1\n      tag_94\n      jump\t// in\n    tag_93:\n      pop\n        /* \"lottery.sol\":1897:1917  resetParticipation() */\n      tag_95\n        /* \"lottery.sol\":1897:1915  resetParticipation */\n      tag_96\n        /* \"lottery.sol\":1897:1917  resetParticipation() */\n      jump\t// in\n    tag_95:\n        /* \"lottery.sol\":1366:1924  {... */\n      pop\n      pop\n      pop\n        /* \"lottery.sol\":1335:1924  function selectWinner() public {... */\n      jump\t// out\n        /* \"lottery.sol\":109:146  address payable[] public participants */\n    tag_40:\n      0x01\n      dup2\n      dup2\n      sload\n      dup2\n      lt\n      tag_97\n      jumpi\n      0x00\n      dup1\n      revert\n    tag_97:\n      swap1\n      0x00\n      mstore\n      keccak256(0x00, 0x20)\n      add\n      0x00\n      swap2\n      pop\n      sload\n      swap1\n      0x0100\n      exp\n      swap1\n      div\n      0xffffffffffffffffffffffffffffffffffffffff\n      and\n      dup2\n      jump\t// out\n        /* \"lottery.sol\":81:103  address public manager */\n    tag_45:\n      0x00\n      dup1\n      sload\n      swap1\n      0x0100\n      exp\n      swap1\n      div\n      0xffffffffffffffffffffffffffffffffffffffff\n      and\n      dup2\n      jump\t// out\n        /* \"lottery.sol\":1170:1328  function random() public view returns (uint) {... */\n    tag_50:\n        /* \"lottery.sol\":1209:1213  uint */\n      0x00\n        /* \"lottery.sol\":1264:1280  block.prevrandao */\n      prevrandao\n        /* \"lottery.sol\":1282:1297  block.timestamp */\n      timestamp\n        /* \"lottery.sol\":1299:1311  participants */\n      0x01\n        /* \"lottery.sol\":1299:1318  participants.length */\n      dup1\n      sload\n      swap1\n      pop\n        /* \"lottery.sol\":1247:1319  abi.encodePacked(block.prevrandao, block.timestamp, participants.length) */\n      add(0x20, mload(0x40))\n      tag_100\n      swap4\n      swap3\n      swap2\n      swap1\n      tag_101\n      jump\t// in\n    tag_100:\n      mload(0x40)\n      0x20\n      dup2\n      dup4\n      sub\n      sub\n      dup2\n      mstore\n      swap1\n      0x40\n      mstore\n        /* \"lottery.sol\":1237:1320  keccak256(abi.encodePacked(block.prevrandao, block.timestamp, participants.length)) */\n      dup1\n      mload\n      swap1\n      0x20\n      add\n      keccak256\n        /* \"lottery.sol\":1232:1321  uint(keccak256(abi.encodePacked(block.prevrandao, block.timestamp, participants.length))) */\n      0x00\n      shr\n        /* \"lottery.sol\":1225:1321  return uint(keccak256(abi.encodePacked(block.prevrandao, block.timestamp, participants.length))) */\n      swap1\n      pop\n        /* \"lottery.sol\":1170:1328  function random() public view returns (uint) {... */\n      swap1\n      jump\t// out\n        /* \"lottery.sol\":206:230  uint256 public startTime */\n    tag_54:\n      sload(0x03)\n      dup2\n      jump\t// out\n        /* \"lottery.sol\":152:199  mapping(address => bool) public hasParticipated */\n    tag_60:\n      mstore(0x20, 0x02)\n      dup1\n      0x00\n      mstore\n      keccak256(0x00, 0x40)\n      0x00\n      swap2\n      pop\n      sload\n      swap1\n      0x0100\n      exp\n      swap1\n      div\n      0xff\n      and\n      dup2\n      jump\t// out\n        /* \"lottery.sol\":322:657  function setLotteryPeriod(uint256 durationInMinutes) public {... */\n    tag_66:\n        /* \"lottery.sol\":427:434  manager */\n      0x00\n      dup1\n      sload\n      swap1\n      0x0100\n      exp\n      swap1\n      div\n      0xffffffffffffffffffffffffffffffffffffffff\n      and\n        /* \"lottery.sol\":413:434  msg.sender == manager */\n      0xffffffffffffffffffffffffffffffffffffffff\n      and\n        /* \"lottery.sol\":413:423  msg.sender */\n      caller\n        /* \"lottery.sol\":413:434  msg.sender == manager */\n      0xffffffffffffffffffffffffffffffffffffffff\n      and\n      eq\n        /* \"lottery.sol\":392:503  require(... */\n      tag_103\n      jumpi\n      mload(0x40)\n      0x08c379a000000000000000000000000000000000000000000000000000000000\n      dup2\n      mstore\n      0x04\n      add\n      tag_104\n      swap1\n      tag_105\n      jump\t// in\n    tag_104:\n      mload(0x40)\n      dup1\n      swap2\n      sub\n      swap1\n      revert\n    tag_103:\n        /* \"lottery.sol\":541:542  0 */\n      0x00\n        /* \"lottery.sol\":521:538  durationInMinutes */\n      dup2\n        /* \"lottery.sol\":521:542  durationInMinutes > 0 */\n      gt\n        /* \"lottery.sol\":513:543  require(durationInMinutes > 0) */\n      tag_106\n      jumpi\n      0x00\n      dup1\n      revert\n    tag_106:\n        /* \"lottery.sol\":566:581  block.timestamp */\n      timestamp\n        /* \"lottery.sol\":554:563  startTime */\n      0x03\n        /* \"lottery.sol\":554:581  startTime = block.timestamp */\n      dup2\n      swap1\n      sstore\n      pop\n        /* \"lottery.sol\":640:649  1 minutes */\n      0x3c\n        /* \"lottery.sol\":620:637  durationInMinutes */\n      dup2\n        /* \"lottery.sol\":620:649  durationInMinutes * 1 minutes */\n      tag_107\n      swap2\n      swap1\n      tag_108\n      jump\t// in\n    tag_107:\n        /* \"lottery.sol\":601:616  block.timestamp */\n      timestamp\n        /* \"lottery.sol\":601:650  block.timestamp + (durationInMinutes * 1 minutes) */\n      tag_109\n      swap2\n      swap1\n      tag_110\n      jump\t// in\n    tag_109:\n        /* \"lottery.sol\":591:598  endTime */\n      0x04\n        /* \"lottery.sol\":591:650  endTime = block.timestamp + (durationInMinutes * 1 minutes) */\n      dup2\n      swap1\n      sstore\n      pop\n        /* \"lottery.sol\":322:657  function setLotteryPeriod(uint256 durationInMinutes) public {... */\n      pop\n      jump\t// out\n        /* \"lottery.sol\":1930:2099  function resetParticipation() private {... */\n    tag_96:\n        /* \"lottery.sol\":1983:1992  uint256 i */\n      0x00\n        /* \"lottery.sol\":1978:2093  for (uint256 i = 0; i < participants.length; i++) {... */\n    tag_112:\n        /* \"lottery.sol\":2002:2014  participants */\n      0x01\n        /* \"lottery.sol\":2002:2021  participants.length */\n      dup1\n      sload\n      swap1\n      pop\n        /* \"lottery.sol\":1998:1999  i */\n      dup2\n        /* \"lottery.sol\":1998:2021  i < participants.length */\n      lt\n        /* \"lottery.sol\":1978:2093  for (uint256 i = 0; i < participants.length; i++) {... */\n      iszero\n      tag_113\n      jumpi\n        /* \"lottery.sol\":2077:2082  false */\n      0x00\n        /* \"lottery.sol\":2042:2057  hasParticipated */\n      0x02\n        /* \"lottery.sol\":2042:2074  hasParticipated[participants[i]] */\n      0x00\n        /* \"lottery.sol\":2058:2070  participants */\n      0x01\n        /* \"lottery.sol\":2071:2072  i */\n      dup5\n        /* \"lottery.sol\":2058:2073  participants[i] */\n      dup2\n      sload\n      dup2\n      lt\n      tag_115\n      jumpi\n      tag_116\n      tag_84\n      jump\t// in\n    tag_116:\n    tag_115:\n      swap1\n      0x00\n      mstore\n      keccak256(0x00, 0x20)\n      add\n      0x00\n      swap1\n      sload\n      swap1\n      0x0100\n      exp\n      swap1\n      div\n      0xffffffffffffffffffffffffffffffffffffffff\n      and\n        /* \"lottery.sol\":2042:2074  hasParticipated[participants[i]] */\n      0xffffffffffffffffffffffffffffffffffffffff\n      and\n      0xffffffffffffffffffffffffffffffffffffffff\n      and\n      dup2\n      mstore\n      0x20\n      add\n      swap1\n      dup2\n      mstore\n      0x20\n      add\n      0x00\n      keccak256\n      0x00\n        /* \"lottery.sol\":2042:2082  hasParticipated[participants[i]] = false */\n      0x0100\n      exp\n      dup2\n      sload\n      dup2\n      0xff\n      mul\n      not\n      and\n      swap1\n      dup4\n      iszero\n      iszero\n      mul\n      or\n      swap1\n      sstore\n      pop\n        /* \"lottery.sol\":2023:2026  i++ */\n      dup1\n      dup1\n      0x01\n      add\n      swap2\n      pop\n      pop\n        /* \"lottery.sol\":1978:2093  for (uint256 i = 0; i < participants.length; i++) {... */\n      jump(tag_112)\n    tag_113:\n      pop\n        /* \"lottery.sol\":1930:2099  function resetParticipation() private {... */\n      jump\t// out\n    tag_94:\n      dup3\n      dup1\n      sload\n      dup3\n      dup3\n      sstore\n      swap1\n      0x00\n      mstore\n      keccak256(0x00, 0x20)\n      swap1\n      dup2\n      add\n      swap3\n      dup3\n      iszero\n      tag_118\n      jumpi\n      swap2\n      0x20\n      mul\n      dup3\n      add\n    tag_119:\n      dup3\n      dup2\n      gt\n      iszero\n      tag_120\n      jumpi\n      dup3\n      mload\n      dup3\n      exp(0x0100, 0x00)\n      dup2\n      sload\n      dup2\n      0xffffffffffffffffffffffffffffffffffffffff\n      mul\n      not\n      and\n      swap1\n      dup4\n      0xffffffffffffffffffffffffffffffffffffffff\n      and\n      mul\n      or\n      swap1\n      sstore\n      pop\n      swap2\n      0x20\n      add\n      swap2\n      swap1\n      0x01\n      add\n      swap1\n      jump(tag_119)\n    tag_120:\n    tag_118:\n      pop\n      swap1\n      pop\n      tag_121\n      swap2\n      swap1\n      tag_122\n      jump\t// in\n    tag_121:\n      pop\n      swap1\n      jump\t// out\n    tag_122:\n    tag_123:\n      dup1\n      dup3\n      gt\n      iszero\n      tag_124\n      jumpi\n      0x00\n      dup2\n      0x00\n      swap1\n      sstore\n      pop\n      0x01\n      add\n      jump(tag_123)\n    tag_124:\n      pop\n      swap1\n      jump\t// out\n        /* \"#utility.yul\":7:176   */\n    tag_125:\n        /* \"#utility.yul\":91:102   */\n      0x00\n        /* \"#utility.yul\":125:131   */\n      dup3\n        /* \"#utility.yul\":120:123   */\n      dup3\n        /* \"#utility.yul\":113:132   */\n      mstore\n        /* \"#utility.yul\":165:169   */\n      0x20\n        /* \"#utility.yul\":160:163   */\n      dup3\n        /* \"#utility.yul\":156:170   */\n      add\n        /* \"#utility.yul\":141:170   */\n      swap1\n      pop\n        /* \"#utility.yul\":7:176   */\n      swap3\n      swap2\n      pop\n      pop\n      jump\t// out\n        /* \"#utility.yul\":182:359   */\n    tag_126:\n        /* \"#utility.yul\":322:351   */\n      0x4c6f747465727920686173206e6f742073746172746564207965740000000000\n        /* \"#utility.yul\":318:319   */\n      0x00\n        /* \"#utility.yul\":310:316   */\n      dup3\n        /* \"#utility.yul\":306:320   */\n      add\n        /* \"#utility.yul\":299:352   */\n      mstore\n        /* \"#utility.yul\":182:359   */\n      pop\n      jump\t// out\n        /* \"#utility.yul\":365:731   */\n    tag_127:\n        /* \"#utility.yul\":507:510   */\n      0x00\n        /* \"#utility.yul\":528:595   */\n      tag_160\n        /* \"#utility.yul\":592:594   */\n      0x1b\n        /* \"#utility.yul\":587:590   */\n      dup4\n        /* \"#utility.yul\":528:595   */\n      tag_125\n      jump\t// in\n    tag_160:\n        /* \"#utility.yul\":521:595   */\n      swap2\n      pop\n        /* \"#utility.yul\":604:697   */\n      tag_161\n        /* \"#utility.yul\":693:696   */\n      dup3\n        /* \"#utility.yul\":604:697   */\n      tag_126\n      jump\t// in\n    tag_161:\n        /* \"#utility.yul\":722:724   */\n      0x20\n        /* \"#utility.yul\":717:720   */\n      dup3\n        /* \"#utility.yul\":713:725   */\n      add\n        /* \"#utility.yul\":706:725   */\n      swap1\n      pop\n        /* \"#utility.yul\":365:731   */\n      swap2\n      swap1\n      pop\n      jump\t// out\n        /* \"#utility.yul\":737:1156   */\n    tag_17:\n        /* \"#utility.yul\":903:907   */\n      0x00\n        /* \"#utility.yul\":941:943   */\n      0x20\n        /* \"#utility.yul\":930:939   */\n      dup3\n        /* \"#utility.yul\":926:944   */\n      add\n        /* \"#utility.yul\":918:944   */\n      swap1\n      pop\n        /* \"#utility.yul\":990:999   */\n      dup2\n        /* \"#utility.yul\":984:988   */\n      dup2\n        /* \"#utility.yul\":980:1000   */\n      sub\n        /* \"#utility.yul\":976:977   */\n      0x00\n        /* \"#utility.yul\":965:974   */\n      dup4\n        /* \"#utility.yul\":961:978   */\n      add\n        /* \"#utility.yul\":954:1001   */\n      mstore\n        /* \"#utility.yul\":1018:1149   */\n      tag_163\n        /* \"#utility.yul\":1144:1148   */\n      dup2\n        /* \"#utility.yul\":1018:1149   */\n      tag_127\n      jump\t// in\n    tag_163:\n        /* \"#utility.yul\":1010:1149   */\n      swap1\n      pop\n        /* \"#utility.yul\":737:1156   */\n      swap2\n      swap1\n      pop\n      jump\t// out\n        /* \"#utility.yul\":1162:1329   */\n    tag_128:\n        /* \"#utility.yul\":1302:1321   */\n      0x4c6f74746572792068617320656e646564000000000000000000000000000000\n        /* \"#utility.yul\":1298:1299   */\n      0x00\n        /* \"#utility.yul\":1290:1296   */\n      dup3\n        /* \"#utility.yul\":1286:1300   */\n      add\n        /* \"#utility.yul\":1279:1322   */\n      mstore\n        /* \"#utility.yul\":1162:1329   */\n      pop\n      jump\t// out\n        /* \"#utility.yul\":1335:1701   */\n    tag_129:\n        /* \"#utility.yul\":1477:1480   */\n      0x00\n        /* \"#utility.yul\":1498:1565   */\n      tag_166\n        /* \"#utility.yul\":1562:1564   */\n      0x11\n        /* \"#utility.yul\":1557:1560   */\n      dup4\n        /* \"#utility.yul\":1498:1565   */\n      tag_125\n      jump\t// in\n    tag_166:\n        /* \"#utility.yul\":1491:1565   */\n      swap2\n      pop\n        /* \"#utility.yul\":1574:1667   */\n      tag_167\n        /* \"#utility.yul\":1663:1666   */\n      dup3\n        /* \"#utility.yul\":1574:1667   */\n      tag_128\n      jump\t// in\n    tag_167:\n        /* \"#utility.yul\":1692:1694   */\n      0x20\n        /* \"#utility.yul\":1687:1690   */\n      dup3\n        /* \"#utility.yul\":1683:1695   */\n      add\n        /* \"#utility.yul\":1676:1695   */\n      swap1\n      pop\n        /* \"#utility.yul\":1335:1701   */\n      swap2\n      swap1\n      pop\n      jump\t// out\n        /* \"#utility.yul\":1707:2126   */\n    tag_20:\n        /* \"#utility.yul\":1873:1877   */\n      0x00\n        /* \"#utility.yul\":1911:1913   */\n      0x20\n        /* \"#utility.yul\":1900:1909   */\n      dup3\n        /* \"#utility.yul\":1896:1914   */\n      add\n        /* \"#utility.yul\":1888:1914   */\n      swap1\n      pop\n        /* \"#utility.yul\":1960:1969   */\n      dup2\n        /* \"#utility.yul\":1954:1958   */\n      dup2\n        /* \"#utility.yul\":1950:1970   */\n      sub\n        /* \"#utility.yul\":1946:1947   */\n      0x00\n        /* \"#utility.yul\":1935:1944   */\n      dup4\n        /* \"#utility.yul\":1931:1948   */\n      add\n        /* \"#utility.yul\":1924:1971   */\n      mstore\n        /* \"#utility.yul\":1988:2119   */\n      tag_169\n        /* \"#utility.yul\":2114:2118   */\n      dup2\n        /* \"#utility.yul\":1988:2119   */\n      tag_129\n      jump\t// in\n    tag_169:\n        /* \"#utility.yul\":1980:2119   */\n      swap1\n      pop\n        /* \"#utility.yul\":1707:2126   */\n      swap2\n      swap1\n      pop\n      jump\t// out\n        /* \"#utility.yul\":2132:2209   */\n    tag_130:\n        /* \"#utility.yul\":2169:2176   */\n      0x00\n        /* \"#utility.yul\":2198:2203   */\n      dup2\n        /* \"#utility.yul\":2187:2203   */\n      swap1\n      pop\n        /* \"#utility.yul\":2132:2209   */\n      swap2\n      swap1\n      pop\n      jump\t// out\n        /* \"#utility.yul\":2215:2333   */\n    tag_131:\n        /* \"#utility.yul\":2302:2326   */\n      tag_172\n        /* \"#utility.yul\":2320:2325   */\n      dup2\n        /* \"#utility.yul\":2302:2326   */\n      tag_130\n      jump\t// in\n    tag_172:\n        /* \"#utility.yul\":2297:2300   */\n      dup3\n        /* \"#utility.yul\":2290:2327   */\n      mstore\n        /* \"#utility.yul\":2215:2333   */\n      pop\n      pop\n      jump\t// out\n        /* \"#utility.yul\":2339:2561   */\n    tag_28:\n        /* \"#utility.yul\":2432:2436   */\n      0x00\n        /* \"#utility.yul\":2470:2472   */\n      0x20\n        /* \"#utility.yul\":2459:2468   */\n      dup3\n        /* \"#utility.yul\":2455:2473   */\n      add\n        /* \"#utility.yul\":2447:2473   */\n      swap1\n      pop\n        /* \"#utility.yul\":2483:2554   */\n      tag_174\n        /* \"#utility.yul\":2551:2552   */\n      0x00\n        /* \"#utility.yul\":2540:2549   */\n      dup4\n        /* \"#utility.yul\":2536:2553   */\n      add\n        /* \"#utility.yul\":2527:2533   */\n      dup5\n        /* \"#utility.yul\":2483:2554   */\n      tag_131\n      jump\t// in\n    tag_174:\n        /* \"#utility.yul\":2339:2561   */\n      swap3\n      swap2\n      pop\n      pop\n      jump\t// out\n        /* \"#utility.yul\":2648:2765   */\n    tag_133:\n        /* \"#utility.yul\":2757:2758   */\n      0x00\n        /* \"#utility.yul\":2754:2755   */\n      dup1\n        /* \"#utility.yul\":2747:2759   */\n      revert\n        /* \"#utility.yul\":2894:3016   */\n    tag_135:\n        /* \"#utility.yul\":2967:2991   */\n      tag_179\n        /* \"#utility.yul\":2985:2990   */\n      dup2\n        /* \"#utility.yul\":2967:2991   */\n      tag_130\n      jump\t// in\n    tag_179:\n        /* \"#utility.yul\":2960:2965   */\n      dup2\n        /* \"#utility.yul\":2957:2992   */\n      eq\n        /* \"#utility.yul\":2947:3010   */\n      tag_180\n      jumpi\n        /* \"#utility.yul\":3006:3007   */\n      0x00\n        /* \"#utility.yul\":3003:3004   */\n      dup1\n        /* \"#utility.yul\":2996:3008   */\n      revert\n        /* \"#utility.yul\":2947:3010   */\n    tag_180:\n        /* \"#utility.yul\":2894:3016   */\n      pop\n      jump\t// out\n        /* \"#utility.yul\":3022:3161   */\n    tag_136:\n        /* \"#utility.yul\":3068:3073   */\n      0x00\n        /* \"#utility.yul\":3106:3112   */\n      dup2\n        /* \"#utility.yul\":3093:3113   */\n      calldataload\n        /* \"#utility.yul\":3084:3113   */\n      swap1\n      pop\n        /* \"#utility.yul\":3122:3155   */\n      tag_182\n        /* \"#utility.yul\":3149:3154   */\n      dup2\n        /* \"#utility.yul\":3122:3155   */\n      tag_135\n      jump\t// in\n    tag_182:\n        /* \"#utility.yul\":3022:3161   */\n      swap3\n      swap2\n      pop\n      pop\n      jump\t// out\n        /* \"#utility.yul\":3167:3496   */\n    tag_39:\n        /* \"#utility.yul\":3226:3232   */\n      0x00\n        /* \"#utility.yul\":3275:3277   */\n      0x20\n        /* \"#utility.yul\":3263:3272   */\n      dup3\n        /* \"#utility.yul\":3254:3261   */\n      dup5\n        /* \"#utility.yul\":3250:3273   */\n      sub\n        /* \"#utility.yul\":3246:3278   */\n      slt\n        /* \"#utility.yul\":3243:3362   */\n      iszero\n      tag_184\n      jumpi\n        /* \"#utility.yul\":3281:3360   */\n      tag_185\n      tag_133\n      jump\t// in\n    tag_185:\n        /* \"#utility.yul\":3243:3362   */\n    tag_184:\n        /* \"#utility.yul\":3401:3402   */\n      0x00\n        /* \"#utility.yul\":3426:3479   */\n      tag_186\n        /* \"#utility.yul\":3471:3478   */\n      dup5\n        /* \"#utility.yul\":3462:3468   */\n      dup3\n        /* \"#utility.yul\":3451:3460   */\n      dup6\n        /* \"#utility.yul\":3447:3469   */\n      add\n        /* \"#utility.yul\":3426:3479   */\n      tag_136\n      jump\t// in\n    tag_186:\n        /* \"#utility.yul\":3416:3479   */\n      swap2\n      pop\n        /* \"#utility.yul\":3372:3489   */\n      pop\n        /* \"#utility.yul\":3167:3496   */\n      swap3\n      swap2\n      pop\n      pop\n      jump\t// out\n        /* \"#utility.yul\":3502:3628   */\n    tag_137:\n        /* \"#utility.yul\":3539:3546   */\n      0x00\n        /* \"#utility.yul\":3579:3621   */\n      0xffffffffffffffffffffffffffffffffffffffff\n        /* \"#utility.yul\":3572:3577   */\n      dup3\n        /* \"#utility.yul\":3568:3622   */\n      and\n        /* \"#utility.yul\":3557:3622   */\n      swap1\n      pop\n        /* \"#utility.yul\":3502:3628   */\n      swap2\n      swap1\n      pop\n      jump\t// out\n        /* \"#utility.yul\":3634:3738   */\n    tag_138:\n        /* \"#utility.yul\":3679:3686   */\n      0x00\n        /* \"#utility.yul\":3708:3732   */\n      tag_189\n        /* \"#utility.yul\":3726:3731   */\n      dup3\n        /* \"#utility.yul\":3708:3732   */\n      tag_137\n      jump\t// in\n    tag_189:\n        /* \"#utility.yul\":3697:3732   */\n      swap1\n      pop\n        /* \"#utility.yul\":3634:3738   */\n      swap2\n      swap1\n      pop\n      jump\t// out\n        /* \"#utility.yul\":3744:3886   */\n    tag_139:\n        /* \"#utility.yul\":3847:3879   */\n      tag_191\n        /* \"#utility.yul\":3873:3878   */\n      dup2\n        /* \"#utility.yul\":3847:3879   */\n      tag_138\n      jump\t// in\n    tag_191:\n        /* \"#utility.yul\":3842:3845   */\n      dup3\n        /* \"#utility.yul\":3835:3880   */\n      mstore\n        /* \"#utility.yul\":3744:3886   */\n      pop\n      pop\n      jump\t// out\n        /* \"#utility.yul\":3892:4146   */\n    tag_42:\n        /* \"#utility.yul\":4001:4005   */\n      0x00\n        /* \"#utility.yul\":4039:4041   */\n      0x20\n        /* \"#utility.yul\":4028:4037   */\n      dup3\n        /* \"#utility.yul\":4024:4042   */\n      add\n        /* \"#utility.yul\":4016:4042   */\n      swap1\n      pop\n        /* \"#utility.yul\":4052:4139   */\n      tag_193\n        /* \"#utility.yul\":4136:4137   */\n      0x00\n        /* \"#utility.yul\":4125:4134   */\n      dup4\n        /* \"#utility.yul\":4121:4138   */\n      add\n        /* \"#utility.yul\":4112:4118   */\n      dup5\n        /* \"#utility.yul\":4052:4139   */\n      tag_139\n      jump\t// in\n    tag_193:\n        /* \"#utility.yul\":3892:4146   */\n      swap3\n      swap2\n      pop\n      pop\n      jump\t// out\n        /* \"#utility.yul\":4152:4248   */\n    tag_140:\n        /* \"#utility.yul\":4189:4196   */\n      0x00\n        /* \"#utility.yul\":4218:4242   */\n      tag_195\n        /* \"#utility.yul\":4236:4241   */\n      dup3\n        /* \"#utility.yul\":4218:4242   */\n      tag_137\n      jump\t// in\n    tag_195:\n        /* \"#utility.yul\":4207:4242   */\n      swap1\n      pop\n        /* \"#utility.yul\":4152:4248   */\n      swap2\n      swap1\n      pop\n      jump\t// out\n        /* \"#utility.yul\":4254:4372   */\n    tag_141:\n        /* \"#utility.yul\":4341:4365   */\n      tag_197\n        /* \"#utility.yul\":4359:4364   */\n      dup2\n        /* \"#utility.yul\":4341:4365   */\n      tag_140\n      jump\t// in\n    tag_197:\n        /* \"#utility.yul\":4336:4339   */\n      dup3\n        /* \"#utility.yul\":4329:4366   */\n      mstore\n        /* \"#utility.yul\":4254:4372   */\n      pop\n      pop\n      jump\t// out\n        /* \"#utility.yul\":4378:4600   */\n    tag_47:\n        /* \"#utility.yul\":4471:4475   */\n      0x00\n        /* \"#utility.yul\":4509:4511   */\n      0x20\n        /* \"#utility.yul\":4498:4507   */\n      dup3\n        /* \"#utility.yul\":4494:4512   */\n      add\n        /* \"#utility.yul\":4486:4512   */\n      swap1\n      pop\n        /* \"#utility.yul\":4522:4593   */\n      tag_199\n        /* \"#utility.yul\":4590:4591   */\n      0x00\n        /* \"#utility.yul\":4579:4588   */\n      dup4\n        /* \"#utility.yul\":4575:4592   */\n      add\n        /* \"#utility.yul\":4566:4572   */\n      dup5\n        /* \"#utility.yul\":4522:4593   */\n      tag_141\n      jump\t// in\n    tag_199:\n        /* \"#utility.yul\":4378:4600   */\n      swap3\n      swap2\n      pop\n      pop\n      jump\t// out\n        /* \"#utility.yul\":4606:4728   */\n    tag_142:\n        /* \"#utility.yul\":4679:4703   */\n      tag_201\n        /* \"#utility.yul\":4697:4702   */\n      dup2\n        /* \"#utility.yul\":4679:4703   */\n      tag_140\n      jump\t// in\n    tag_201:\n        /* \"#utility.yul\":4672:4677   */\n      dup2\n        /* \"#utility.yul\":4669:4704   */\n      eq\n        /* \"#utility.yul\":4659:4722   */\n      tag_202\n      jumpi\n        /* \"#utility.yul\":4718:4719   */\n      0x00\n        /* \"#utility.yul\":4715:4716   */\n      dup1\n        /* \"#utility.yul\":4708:4720   */\n      revert\n        /* \"#utility.yul\":4659:4722   */\n    tag_202:\n        /* \"#utility.yul\":4606:4728   */\n      pop\n      jump\t// out\n        /* \"#utility.yul\":4734:4873   */\n    tag_143:\n        /* \"#utility.yul\":4780:4785   */\n      0x00\n        /* \"#utility.yul\":4818:4824   */\n      dup2\n        /* \"#utility.yul\":4805:4825   */\n      calldataload\n        /* \"#utility.yul\":4796:4825   */\n      swap1\n      pop\n        /* \"#utility.yul\":4834:4867   */\n      tag_204\n        /* \"#utility.yul\":4861:4866   */\n      dup2\n        /* \"#utility.yul\":4834:4867   */\n      tag_142\n      jump\t// in\n    tag_204:\n        /* \"#utility.yul\":4734:4873   */\n      swap3\n      swap2\n      pop\n      pop\n      jump\t// out\n        /* \"#utility.yul\":4879:5208   */\n    tag_59:\n        /* \"#utility.yul\":4938:4944   */\n      0x00\n        /* \"#utility.yul\":4987:4989   */\n      0x20\n        /* \"#utility.yul\":4975:4984   */\n      dup3\n        /* \"#utility.yul\":4966:4973   */\n      dup5\n        /* \"#utility.yul\":4962:4985   */\n      sub\n        /* \"#utility.yul\":4958:4990   */\n      slt\n        /* \"#utility.yul\":4955:5074   */\n      iszero\n      tag_206\n      jumpi\n        /* \"#utility.yul\":4993:5072   */\n      tag_207\n      tag_133\n      jump\t// in\n    tag_207:\n        /* \"#utility.yul\":4955:5074   */\n    tag_206:\n        /* \"#utility.yul\":5113:5114   */\n      0x00\n        /* \"#utility.yul\":5138:5191   */\n      tag_208\n        /* \"#utility.yul\":5183:5190   */\n      dup5\n        /* \"#utility.yul\":5174:5180   */\n      dup3\n        /* \"#utility.yul\":5163:5172   */\n      dup6\n        /* \"#utility.yul\":5159:5181   */\n      add\n        /* \"#utility.yul\":5138:5191   */\n      tag_143\n      jump\t// in\n    tag_208:\n        /* \"#utility.yul\":5128:5191   */\n      swap2\n      pop\n        /* \"#utility.yul\":5084:5201   */\n      pop\n        /* \"#utility.yul\":4879:5208   */\n      swap3\n      swap2\n      pop\n      pop\n      jump\t// out\n        /* \"#utility.yul\":5214:5304   */\n    tag_144:\n        /* \"#utility.yul\":5248:5255   */\n      0x00\n        /* \"#utility.yul\":5291:5296   */\n      dup2\n        /* \"#utility.yul\":5284:5297   */\n      iszero\n        /* \"#utility.yul\":5277:5298   */\n      iszero\n        /* \"#utility.yul\":5266:5298   */\n      swap1\n      pop\n        /* \"#utility.yul\":5214:5304   */\n      swap2\n      swap1\n      pop\n      jump\t// out\n        /* \"#utility.yul\":5310:5419   */\n    tag_145:\n        /* \"#utility.yul\":5391:5412   */\n      tag_211\n        /* \"#utility.yul\":5406:5411   */\n      dup2\n        /* \"#utility.yul\":5391:5412   */\n      tag_144\n      jump\t// in\n    tag_211:\n        /* \"#utility.yul\":5386:5389   */\n      dup3\n        /* \"#utility.yul\":5379:5413   */\n      mstore\n        /* \"#utility.yul\":5310:5419   */\n      pop\n      pop\n      jump\t// out\n        /* \"#utility.yul\":5425:5635   */\n    tag_62:\n        /* \"#utility.yul\":5512:5516   */\n      0x00\n        /* \"#utility.yul\":5550:5552   */\n      0x20\n        /* \"#utility.yul\":5539:5548   */\n      dup3\n        /* \"#utility.yul\":5535:5553   */\n      add\n        /* \"#utility.yul\":5527:5553   */\n      swap1\n      pop\n        /* \"#utility.yul\":5563:5628   */\n      tag_213\n        /* \"#utility.yul\":5625:5626   */\n      0x00\n        /* \"#utility.yul\":5614:5623   */\n      dup4\n        /* \"#utility.yul\":5610:5627   */\n      add\n        /* \"#utility.yul\":5601:5607   */\n      dup5\n        /* \"#utility.yul\":5563:5628   */\n      tag_145\n      jump\t// in\n    tag_213:\n        /* \"#utility.yul\":5425:5635   */\n      swap3\n      swap2\n      pop\n      pop\n      jump\t// out\n        /* \"#utility.yul\":5641:5823   */\n    tag_146:\n        /* \"#utility.yul\":5781:5815   */\n      0x4c6f747465727920706572696f6420686173206e6f7420656e64656420796574\n        /* \"#utility.yul\":5777:5778   */\n      0x00\n        /* \"#utility.yul\":5769:5775   */\n      dup3\n        /* \"#utility.yul\":5765:5779   */\n      add\n        /* \"#utility.yul\":5758:5816   */\n      mstore\n        /* \"#utility.yul\":5641:5823   */\n      pop\n      jump\t// out\n        /* \"#utility.yul\":5829:6195   */\n    tag_147:\n        /* \"#utility.yul\":5971:5974   */\n      0x00\n        /* \"#utility.yul\":5992:6059   */\n      tag_216\n        /* \"#utility.yul\":6056:6058   */\n      0x20\n        /* \"#utility.yul\":6051:6054   */\n      dup4\n        /* \"#utility.yul\":5992:6059   */\n      tag_125\n      jump\t// in\n    tag_216:\n        /* \"#utility.yul\":5985:6059   */\n      swap2\n      pop\n        /* \"#utility.yul\":6068:6161   */\n      tag_217\n        /* \"#utility.yul\":6157:6160   */\n      dup3\n        /* \"#utility.yul\":6068:6161   */\n      tag_146\n      jump\t// in\n    tag_217:\n        /* \"#utility.yul\":6186:6188   */\n      0x20\n        /* \"#utility.yul\":6181:6184   */\n      dup3\n        /* \"#utility.yul\":6177:6189   */\n      add\n        /* \"#utility.yul\":6170:6189   */\n      swap1\n      pop\n        /* \"#utility.yul\":5829:6195   */\n      swap2\n      swap1\n      pop\n      jump\t// out\n        /* \"#utility.yul\":6201:6620   */\n    tag_73:\n        /* \"#utility.yul\":6367:6371   */\n      0x00\n        /* \"#utility.yul\":6405:6407   */\n      0x20\n        /* \"#utility.yul\":6394:6403   */\n      dup3\n        /* \"#utility.yul\":6390:6408   */\n      add\n        /* \"#utility.yul\":6382:6408   */\n      swap1\n      pop\n        /* \"#utility.yul\":6454:6463   */\n      dup2\n        /* \"#utility.yul\":6448:6452   */\n      dup2\n        /* \"#utility.yul\":6444:6464   */\n      sub\n        /* \"#utility.yul\":6440:6441   */\n      0x00\n        /* \"#utility.yul\":6429:6438   */\n      dup4\n        /* \"#utility.yul\":6425:6442   */\n      add\n        /* \"#utility.yul\":6418:6465   */\n      mstore\n        /* \"#utility.yul\":6482:6613   */\n      tag_219\n        /* \"#utility.yul\":6608:6612   */\n      dup2\n        /* \"#utility.yul\":6482:6613   */\n      tag_147\n      jump\t// in\n    tag_219:\n        /* \"#utility.yul\":6474:6613   */\n      swap1\n      pop\n        /* \"#utility.yul\":6201:6620   */\n      swap2\n      swap1\n      pop\n      jump\t// out\n        /* \"#utility.yul\":6626:6808   */\n    tag_148:\n        /* \"#utility.yul\":6766:6800   */\n      0x4174206c656173742033207061727469636970616e7473207265717569726564\n        /* \"#utility.yul\":6762:6763   */\n      0x00\n        /* \"#utility.yul\":6754:6760   */\n      dup3\n        /* \"#utility.yul\":6750:6764   */\n      add\n        /* \"#utility.yul\":6743:6801   */\n      mstore\n        /* \"#utility.yul\":6626:6808   */\n      pop\n      jump\t// out\n        /* \"#utility.yul\":6814:7180   */\n    tag_149:\n        /* \"#utility.yul\":6956:6959   */\n      0x00\n        /* \"#utility.yul\":6977:7044   */\n      tag_222\n        /* \"#utility.yul\":7041:7043   */\n      0x20\n        /* \"#utility.yul\":7036:7039   */\n      dup4\n        /* \"#utility.yul\":6977:7044   */\n      tag_125\n      jump\t// in\n    tag_222:\n        /* \"#utility.yul\":6970:7044   */\n      swap2\n      pop\n        /* \"#utility.yul\":7053:7146   */\n      tag_223\n        /* \"#utility.yul\":7142:7145   */\n      dup3\n        /* \"#utility.yul\":7053:7146   */\n      tag_148\n      jump\t// in\n    tag_223:\n        /* \"#utility.yul\":7171:7173   */\n      0x20\n        /* \"#utility.yul\":7166:7169   */\n      dup3\n        /* \"#utility.yul\":7162:7174   */\n      add\n        /* \"#utility.yul\":7155:7174   */\n      swap1\n      pop\n        /* \"#utility.yul\":6814:7180   */\n      swap2\n      swap1\n      pop\n      jump\t// out\n        /* \"#utility.yul\":7186:7605   */\n    tag_76:\n        /* \"#utility.yul\":7352:7356   */\n      0x00\n        /* \"#utility.yul\":7390:7392   */\n      0x20\n        /* \"#utility.yul\":7379:7388   */\n      dup3\n        /* \"#utility.yul\":7375:7393   */\n      add\n        /* \"#utility.yul\":7367:7393   */\n      swap1\n      pop\n        /* \"#utility.yul\":7439:7448   */\n      dup2\n        /* \"#utility.yul\":7433:7437   */\n      dup2\n        /* \"#utility.yul\":7429:7449   */\n      sub\n        /* \"#utility.yul\":7425:7426   */\n      0x00\n        /* \"#utility.yul\":7414:7423   */\n      dup4\n        /* \"#utility.yul\":7410:7427   */\n      add\n        /* \"#utility.yul\":7403:7450   */\n      mstore\n        /* \"#utility.yul\":7467:7598   */\n      tag_225\n        /* \"#utility.yul\":7593:7597   */\n      dup2\n        /* \"#utility.yul\":7467:7598   */\n      tag_149\n      jump\t// in\n    tag_225:\n        /* \"#utility.yul\":7459:7598   */\n      swap1\n      pop\n        /* \"#utility.yul\":7186:7605   */\n      swap2\n      swap1\n      pop\n      jump\t// out\n        /* \"#utility.yul\":7611:7791   */\n    tag_150:\n        /* \"#utility.yul\":7659:7736   */\n      0x4e487b7100000000000000000000000000000000000000000000000000000000\n        /* \"#utility.yul\":7656:7657   */\n      0x00\n        /* \"#utility.yul\":7649:7737   */\n      mstore\n        /* \"#utility.yul\":7756:7760   */\n      0x12\n        /* \"#utility.yul\":7753:7754   */\n      0x04\n        /* \"#utility.yul\":7746:7761   */\n      mstore\n        /* \"#utility.yul\":7780:7784   */\n      0x24\n        /* \"#utility.yul\":7777:7778   */\n      0x00\n        /* \"#utility.yul\":7770:7785   */\n      revert\n        /* \"#utility.yul\":7797:7973   */\n    tag_81:\n        /* \"#utility.yul\":7829:7830   */\n      0x00\n        /* \"#utility.yul\":7846:7866   */\n      tag_228\n        /* \"#utility.yul\":7864:7865   */\n      dup3\n        /* \"#utility.yul\":7846:7866   */\n      tag_130\n      jump\t// in\n    tag_228:\n        /* \"#utility.yul\":7841:7866   */\n      swap2\n      pop\n        /* \"#utility.yul\":7880:7900   */\n      tag_229\n        /* \"#utility.yul\":7898:7899   */\n      dup4\n        /* \"#utility.yul\":7880:7900   */\n      tag_130\n      jump\t// in\n    tag_229:\n        /* \"#utility.yul\":7875:7900   */\n      swap3\n      pop\n        /* \"#utility.yul\":7919:7920   */\n      dup3\n        /* \"#utility.yul\":7909:7944   */\n      tag_230\n      jumpi\n        /* \"#utility.yul\":7924:7942   */\n      tag_231\n      tag_150\n      jump\t// in\n    tag_231:\n        /* \"#utility.yul\":7909:7944   */\n    tag_230:\n        /* \"#utility.yul\":7965:7966   */\n      dup3\n        /* \"#utility.yul\":7962:7963   */\n      dup3\n        /* \"#utility.yul\":7958:7967   */\n      mod\n        /* \"#utility.yul\":7953:7967   */\n      swap1\n      pop\n        /* \"#utility.yul\":7797:7973   */\n      swap3\n      swap2\n      pop\n      pop\n      jump\t// out\n        /* \"#utility.yul\":7979:8159   */\n    tag_84:\n        /* \"#utility.yul\":8027:8104   */\n      0x4e487b7100000000000000000000000000000000000000000000000000000000\n        /* \"#utility.yul\":8024:8025   */\n      0x00\n        /* \"#utility.yul\":8017:8105   */\n      mstore\n        /* \"#utility.yul\":8124:8128   */\n      0x32\n        /* \"#utility.yul\":8121:8122   */\n      0x04\n        /* \"#utility.yul\":8114:8129   */\n      mstore\n        /* \"#utility.yul\":8148:8152   */\n      0x24\n        /* \"#utility.yul\":8145:8146   */\n      0x00\n        /* \"#utility.yul\":8138:8153   */\n      revert\n        /* \"#utility.yul\":8165:8345   */\n    tag_91:\n        /* \"#utility.yul\":8213:8290   */\n      0x4e487b7100000000000000000000000000000000000000000000000000000000\n        /* \"#utility.yul\":8210:8211   */\n      0x00\n        /* \"#utility.yul\":8203:8291   */\n      mstore\n        /* \"#utility.yul\":8310:8314   */\n      0x41\n        /* \"#utility.yul\":8307:8308   */\n      0x04\n        /* \"#utility.yul\":8300:8315   */\n      mstore\n        /* \"#utility.yul\":8334:8338   */\n      0x24\n        /* \"#utility.yul\":8331:8332   */\n      0x00\n        /* \"#utility.yul\":8324:8339   */\n      revert\n        /* \"#utility.yul\":8351:8430   */\n    tag_151:\n        /* \"#utility.yul\":8390:8397   */\n      0x00\n        /* \"#utility.yul\":8419:8424   */\n      dup2\n        /* \"#utility.yul\":8408:8424   */\n      swap1\n      pop\n        /* \"#utility.yul\":8351:8430   */\n      swap2\n      swap1\n      pop\n      jump\t// out\n        /* \"#utility.yul\":8436:8593   */\n    tag_152:\n        /* \"#utility.yul\":8541:8586   */\n      tag_236\n        /* \"#utility.yul\":8561:8585   */\n      tag_237\n        /* \"#utility.yul\":8579:8584   */\n      dup3\n        /* \"#utility.yul\":8561:8585   */\n      tag_130\n      jump\t// in\n    tag_237:\n        /* \"#utility.yul\":8541:8586   */\n      tag_151\n      jump\t// in\n    tag_236:\n        /* \"#utility.yul\":8536:8539   */\n      dup3\n        /* \"#utility.yul\":8529:8587   */\n      mstore\n        /* \"#utility.yul\":8436:8593   */\n      pop\n      pop\n      jump\t// out\n        /* \"#utility.yul\":8599:9137   */\n    tag_101:\n        /* \"#utility.yul\":8767:8770   */\n      0x00\n        /* \"#utility.yul\":8782:8857   */\n      tag_239\n        /* \"#utility.yul\":8853:8856   */\n      dup3\n        /* \"#utility.yul\":8844:8850   */\n      dup7\n        /* \"#utility.yul\":8782:8857   */\n      tag_152\n      jump\t// in\n    tag_239:\n        /* \"#utility.yul\":8882:8884   */\n      0x20\n        /* \"#utility.yul\":8877:8880   */\n      dup3\n        /* \"#utility.yul\":8873:8885   */\n      add\n        /* \"#utility.yul\":8866:8885   */\n      swap2\n      pop\n        /* \"#utility.yul\":8895:8970   */\n      tag_240\n        /* \"#utility.yul\":8966:8969   */\n      dup3\n        /* \"#utility.yul\":8957:8963   */\n      dup6\n        /* \"#utility.yul\":8895:8970   */\n      tag_152\n      jump\t// in\n    tag_240:\n        /* \"#utility.yul\":8995:8997   */\n      0x20\n        /* \"#utility.yul\":8990:8993   */\n      dup3\n        /* \"#utility.yul\":8986:8998   */\n      add\n        /* \"#utility.yul\":8979:8998   */\n      swap2\n      pop\n        /* \"#utility.yul\":9008:9083   */\n      tag_241\n        /* \"#utility.yul\":9079:9082   */\n      dup3\n        /* \"#utility.yul\":9070:9076   */\n      dup5\n        /* \"#utility.yul\":9008:9083   */\n      tag_152\n      jump\t// in\n    tag_241:\n        /* \"#utility.yul\":9108:9110   */\n      0x20\n        /* \"#utility.yul\":9103:9106   */\n      dup3\n        /* \"#utility.yul\":9099:9111   */\n      add\n        /* \"#utility.yul\":9092:9111   */\n      swap2\n      pop\n        /* \"#utility.yul\":9128:9131   */\n      dup2\n        /* \"#utility.yul\":9121:9131   */\n      swap1\n      pop\n        /* \"#utility.yul\":8599:9137   */\n      swap5\n      swap4\n      pop\n      pop\n      pop\n      pop\n      jump\t// out\n        /* \"#utility.yul\":9143:9373   */\n    tag_153:\n        /* \"#utility.yul\":9283:9317   */\n      0x4f6e6c7920746865206d616e616765722063616e2073657420746865206c6f74\n        /* \"#utility.yul\":9279:9280   */\n      0x00\n        /* \"#utility.yul\":9271:9277   */\n      dup3\n        /* \"#utility.yul\":9267:9281   */\n      add\n        /* \"#utility.yul\":9260:9318   */\n      mstore\n        /* \"#utility.yul\":9352:9365   */\n      0x7465727920706572696f64000000000000000000000000000000000000000000\n        /* \"#utility.yul\":9347:9349   */\n      0x20\n        /* \"#utility.yul\":9339:9345   */\n      dup3\n        /* \"#utility.yul\":9335:9350   */\n      add\n        /* \"#utility.yul\":9328:9366   */\n      mstore\n        /* \"#utility.yul\":9143:9373   */\n      pop\n      jump\t// out\n        /* \"#utility.yul\":9379:9745   */\n    tag_154:\n        /* \"#utility.yul\":9521:9524   */\n      0x00\n        /* \"#utility.yul\":9542:9609   */\n      tag_244\n        /* \"#utility.yul\":9606:9608   */\n      0x2b\n        /* \"#utility.yul\":9601:9604   */\n      dup4\n        /* \"#utility.yul\":9542:9609   */\n      tag_125\n      jump\t// in\n    tag_244:\n        /* \"#utility.yul\":9535:9609   */\n      swap2\n      pop\n        /* \"#utility.yul\":9618:9711   */\n      tag_245\n        /* \"#utility.yul\":9707:9710   */\n      dup3\n        /* \"#utility.yul\":9618:9711   */\n      tag_153\n      jump\t// in\n    tag_245:\n        /* \"#utility.yul\":9736:9738   */\n      0x40\n        /* \"#utility.yul\":9731:9734   */\n      dup3\n        /* \"#utility.yul\":9727:9739   */\n      add\n        /* \"#utility.yul\":9720:9739   */\n      swap1\n      pop\n        /* \"#utility.yul\":9379:9745   */\n      swap2\n      swap1\n      pop\n      jump\t// out\n        /* \"#utility.yul\":9751:10170   */\n    tag_105:\n        /* \"#utility.yul\":9917:9921   */\n      0x00\n        /* \"#utility.yul\":9955:9957   */\n      0x20\n        /* \"#utility.yul\":9944:9953   */\n      dup3\n        /* \"#utility.yul\":9940:9958   */\n      add\n        /* \"#utility.yul\":9932:9958   */\n      swap1\n      pop\n        /* \"#utility.yul\":10004:10013   */\n      dup2\n        /* \"#utility.yul\":9998:10002   */\n      dup2\n        /* \"#utility.yul\":9994:10014   */\n      sub\n        /* \"#utility.yul\":9990:9991   */\n      0x00\n        /* \"#utility.yul\":9979:9988   */\n      dup4\n        /* \"#utility.yul\":9975:9992   */\n      add\n        /* \"#utility.yul\":9968:10015   */\n      mstore\n        /* \"#utility.yul\":10032:10163   */\n      tag_247\n        /* \"#utility.yul\":10158:10162   */\n      dup2\n        /* \"#utility.yul\":10032:10163   */\n      tag_154\n      jump\t// in\n    tag_247:\n        /* \"#utility.yul\":10024:10163   */\n      swap1\n      pop\n        /* \"#utility.yul\":9751:10170   */\n      swap2\n      swap1\n      pop\n      jump\t// out\n        /* \"#utility.yul\":10176:10356   */\n    tag_155:\n        /* \"#utility.yul\":10224:10301   */\n      0x4e487b7100000000000000000000000000000000000000000000000000000000\n        /* \"#utility.yul\":10221:10222   */\n      0x00\n        /* \"#utility.yul\":10214:10302   */\n      mstore\n        /* \"#utility.yul\":10321:10325   */\n      0x11\n        /* \"#utility.yul\":10318:10319   */\n      0x04\n        /* \"#utility.yul\":10311:10326   */\n      mstore\n        /* \"#utility.yul\":10345:10349   */\n      0x24\n        /* \"#utility.yul\":10342:10343   */\n      0x00\n        /* \"#utility.yul\":10335:10350   */\n      revert\n        /* \"#utility.yul\":10362:10772   */\n    tag_108:\n        /* \"#utility.yul\":10402:10409   */\n      0x00\n        /* \"#utility.yul\":10425:10445   */\n      tag_250\n        /* \"#utility.yul\":10443:10444   */\n      dup3\n        /* \"#utility.yul\":10425:10445   */\n      tag_130\n      jump\t// in\n    tag_250:\n        /* \"#utility.yul\":10420:10445   */\n      swap2\n      pop\n        /* \"#utility.yul\":10459:10479   */\n      tag_251\n        /* \"#utility.yul\":10477:10478   */\n      dup4\n        /* \"#utility.yul\":10459:10479   */\n      tag_130\n      jump\t// in\n    tag_251:\n        /* \"#utility.yul\":10454:10479   */\n      swap3\n      pop\n        /* \"#utility.yul\":10514:10515   */\n      dup3\n        /* \"#utility.yul\":10511:10512   */\n      dup3\n        /* \"#utility.yul\":10507:10516   */\n      mul\n        /* \"#utility.yul\":10536:10566   */\n      tag_252\n        /* \"#utility.yul\":10554:10565   */\n      dup2\n        /* \"#utility.yul\":10536:10566   */\n      tag_130\n      jump\t// in\n    tag_252:\n        /* \"#utility.yul\":10525:10566   */\n      swap2\n      pop\n        /* \"#utility.yul\":10715:10716   */\n      dup3\n        /* \"#utility.yul\":10706:10713   */\n      dup3\n        /* \"#utility.yul\":10702:10717   */\n      div\n        /* \"#utility.yul\":10699:10700   */\n      dup5\n        /* \"#utility.yul\":10696:10718   */\n      eq\n        /* \"#utility.yul\":10676:10677   */\n      dup4\n        /* \"#utility.yul\":10669:10678   */\n      iszero\n        /* \"#utility.yul\":10649:10732   */\n      or\n        /* \"#utility.yul\":10626:10765   */\n      tag_253\n      jumpi\n        /* \"#utility.yul\":10745:10763   */\n      tag_254\n      tag_155\n      jump\t// in\n    tag_254:\n        /* \"#utility.yul\":10626:10765   */\n    tag_253:\n        /* \"#utility.yul\":10410:10772   */\n      pop\n        /* \"#utility.yul\":10362:10772   */\n      swap3\n      swap2\n      pop\n      pop\n      jump\t// out\n        /* \"#utility.yul\":10778:10969   */\n    tag_110:\n        /* \"#utility.yul\":10818:10821   */\n      0x00\n        /* \"#utility.yul\":10837:10857   */\n      tag_256\n        /* \"#utility.yul\":10855:10856   */\n      dup3\n        /* \"#utility.yul\":10837:10857   */\n      tag_130\n      jump\t// in\n    tag_256:\n        /* \"#utility.yul\":10832:10857   */\n      swap2\n      pop\n        /* \"#utility.yul\":10871:10891   */\n      tag_257\n        /* \"#utility.yul\":10889:10890   */\n      dup4\n        /* \"#utility.yul\":10871:10891   */\n      tag_130\n      jump\t// in\n    tag_257:\n        /* \"#utility.yul\":10866:10891   */\n      swap3\n      pop\n        /* \"#utility.yul\":10914:10915   */\n      dup3\n        /* \"#utility.yul\":10911:10912   */\n      dup3\n        /* \"#utility.yul\":10907:10916   */\n      add\n        /* \"#utility.yul\":10900:10916   */\n      swap1\n      pop\n        /* \"#utility.yul\":10935:10938   */\n      dup1\n        /* \"#utility.yul\":10932:10933   */\n      dup3\n        /* \"#utility.yul\":10929:10939   */\n      gt\n        /* \"#utility.yul\":10926:10962   */\n      iszero\n      tag_258\n      jumpi\n        /* \"#utility.yul\":10942:10960   */\n      tag_259\n      tag_155\n      jump\t// in\n    tag_259:\n        /* \"#utility.yul\":10926:10962   */\n    tag_258:\n        /* \"#utility.yul\":10778:10969   */\n      swap3\n      swap2\n      pop\n      pop\n      jump\t// out\n\n    auxdata: 0xa26469706673582212203f3996e6a2c5eae93c2424aea1770fe0c3513425557811ce91db8ede60a73b9964736f6c634300081a0033\n}\n",
				"bytecode": {
					"linkReferences": {},
					"object": "6080604052348015600e575f80fd5b50335f806101000a81548173ffffffffffffffffffffffffffffffffffffffff021916908373ffffffffffffffffffffffffffffffffffffffff160217905550610f188061005b5f395ff3fe608060405260043610610089575f3560e01c8063481c6a7511610058578063481c6a75146102de5780635ec01e4d1461030857806378e9792514610332578063b4fb3ee31461035c578063d99c69e61461039857610234565b806312065fe0146102385780633197cbb61461026257806333a99e041461028c57806335c1d349146102a257610234565b36610234576003544210156100d3576040517f08c379a00000000000000000000000000000000000000000000000000000000081526004016100ca906109a7565b60405180910390fd5b600454421115610118576040517f08c379a000000000000000000000000000000000000000000000000000000000815260040161010f90610a0f565b60405180910390fd5b670de0b6b3a7640000341461012b575f80fd5b60025f3373ffffffffffffffffffffffffffffffffffffffff1673ffffffffffffffffffffffffffffffffffffffff1681526020019081526020015f205f9054906101000a900460ff161561017e575f80fd5b600133908060018154018082558091505060019003905f5260205f20015f9091909190916101000a81548173ffffffffffffffffffffffffffffffffffffffff021916908373ffffffffffffffffffffffffffffffffffffffff160217905550600160025f3373ffffffffffffffffffffffffffffffffffffffff1673ffffffffffffffffffffffffffffffffffffffff1681526020019081526020015f205f6101000a81548160ff0219169083151502179055005b5f80fd5b348015610243575f80fd5b5061024c6103c0565b6040516102599190610a45565b60405180910390f35b34801561026d575f80fd5b5061027661041e565b6040516102839190610a45565b60405180910390f35b348015610297575f80fd5b506102a0610424565b005b3480156102ad575f80fd5b506102c860048036038101906102c39190610a8c565b610684565b6040516102d59190610af6565b60405180910390f35b3480156102e9575f80fd5b506102f26106bf565b6040516102ff9190610b2f565b60405180910390f35b348015610313575f80fd5b5061031c6106e2565b6040516103299190610a45565b60405180910390f35b34801561033d575f80fd5b5061034661071a565b6040516103539190610a45565b60405180910390f35b348015610367575f80fd5b50610382600480360381019061037d9190610b72565b610720565b60405161038f9190610bb7565b60405180910390f35b3480156103a3575f80fd5b506103be60048036038101906103b99190610a8c565b61073d565b005b5f805f9054906101000a900473ffffffffffffffffffffffffffffffffffffffff1673ffffffffffffffffffffffffffffffffffffffff163373ffffffffffffffffffffffffffffffffffffffff1614610418575f80fd5b47905090565b60045481565b5f8054906101000a900473ffffffffffffffffffffffffffffffffffffffff1673ffffffffffffffffffffffffffffffffffffffff163373ffffffffffffffffffffffffffffffffffffffff161461047a575f80fd5b60045442116104be576040517f08c379a00000000000000000000000000000000000000000000000000000000081526004016104b590610c1a565b60405180910390fd5b60036001805490501015610507576040517f08c379a00000000000000000000000000000000000000000000000000000000081526004016104fe90610c82565b60405180910390fd5b5f8054906101000a900473ffffffffffffffffffffffffffffffffffffffff1673ffffffffffffffffffffffffffffffffffffffff163373ffffffffffffffffffffffffffffffffffffffff161461055d575f80fd5b6003600180549050101561056f575f80fd5b5f6105786106e2565b90505f806001805490508361058d9190610ccd565b9050600181815481106105a3576105a2610cfd565b5b905f5260205f20015f9054906101000a900473ffffffffffffffffffffffffffffffffffffffff1691508173ffffffffffffffffffffffffffffffffffffffff166108fc6105ef6103c0565b90811502906040515f60405180830381858888f19350505050158015610617573d5f803e3d5ffd5b505f67ffffffffffffffff81111561063257610631610d2a565b5b6040519080825280602002602001820160405280156106605781602001602082028036833780820191505090505b50600190805190602001906106769291906108ab565b5061067f6107fd565b505050565b60018181548110610693575f80fd5b905f5260205f20015f915054906101000a900473ffffffffffffffffffffffffffffffffffffffff1681565b5f8054906101000a900473ffffffffffffffffffffffffffffffffffffffff1681565b5f44426001805490506040516020016106fd93929190610d77565b604051602081830303815290604052805190602001205f1c905090565b60035481565b6002602052805f5260405f205f915054906101000a900460ff1681565b5f8054906101000a900473ffffffffffffffffffffffffffffffffffffffff1673ffffffffffffffffffffffffffffffffffffffff163373ffffffffffffffffffffffffffffffffffffffff16146107ca576040517f08c379a00000000000000000000000000000000000000000000000000000000081526004016107c190610e23565b60405180910390fd5b5f81116107d5575f80fd5b42600381905550603c816107e99190610e6e565b426107f49190610eaf565b60048190555050565b5f5b6001805490508110156108a8575f60025f6001848154811061082457610823610cfd565b5b905f5260205f20015f9054906101000a900473ffffffffffffffffffffffffffffffffffffffff1673ffffffffffffffffffffffffffffffffffffffff1673ffffffffffffffffffffffffffffffffffffffff1681526020019081526020015f205f6101000a81548160ff02191690831515021790555080806001019150506107ff565b50565b828054828255905f5260205f20908101928215610921579160200282015b82811115610920578251825f6101000a81548173ffffffffffffffffffffffffffffffffffffffff021916908373ffffffffffffffffffffffffffffffffffffffff160217905550916020019190600101906108c9565b5b50905061092e9190610932565b5090565b5b80821115610949575f815f905550600101610933565b5090565b5f82825260208201905092915050565b7f4c6f747465727920686173206e6f7420737461727465642079657400000000005f82015250565b5f610991601b8361094d565b915061099c8261095d565b602082019050919050565b5f6020820190508181035f8301526109be81610985565b9050919050565b7f4c6f74746572792068617320656e6465640000000000000000000000000000005f82015250565b5f6109f960118361094d565b9150610a04826109c5565b602082019050919050565b5f6020820190508181035f830152610a26816109ed565b9050919050565b5f819050919050565b610a3f81610a2d565b82525050565b5f602082019050610a585f830184610a36565b92915050565b5f80fd5b610a6b81610a2d565b8114610a75575f80fd5b50565b5f81359050610a8681610a62565b92915050565b5f60208284031215610aa157610aa0610a5e565b5b5f610aae84828501610a78565b91505092915050565b5f73ffffffffffffffffffffffffffffffffffffffff82169050919050565b5f610ae082610ab7565b9050919050565b610af081610ad6565b82525050565b5f602082019050610b095f830184610ae7565b92915050565b5f610b1982610ab7565b9050919050565b610b2981610b0f565b82525050565b5f602082019050610b425f830184610b20565b92915050565b610b5181610b0f565b8114610b5b575f80fd5b50565b5f81359050610b6c81610b48565b92915050565b5f60208284031215610b8757610b86610a5e565b5b5f610b9484828501610b5e565b91505092915050565b5f8115159050919050565b610bb181610b9d565b82525050565b5f602082019050610bca5f830184610ba8565b92915050565b7f4c6f747465727920706572696f6420686173206e6f7420656e646564207965745f82015250565b5f610c0460208361094d565b9150610c0f82610bd0565b602082019050919050565b5f6020820190508181035f830152610c3181610bf8565b9050919050565b7f4174206c656173742033207061727469636970616e74732072657175697265645f82015250565b5f610c6c60208361094d565b9150610c7782610c38565b602082019050919050565b5f6020820190508181035f830152610c9981610c60565b9050919050565b7f4e487b71000000000000000000000000000000000000000000000000000000005f52601260045260245ffd5b5f610cd782610a2d565b9150610ce283610a2d565b925082610cf257610cf1610ca0565b5b828206905092915050565b7f4e487b71000000000000000000000000000000000000000000000000000000005f52603260045260245ffd5b7f4e487b71000000000000000000000000000000000000000000000000000000005f52604160045260245ffd5b5f819050919050565b610d71610d6c82610a2d565b610d57565b82525050565b5f610d828286610d60565b602082019150610d928285610d60565b602082019150610da28284610d60565b602082019150819050949350505050565b7f4f6e6c7920746865206d616e616765722063616e2073657420746865206c6f745f8201527f7465727920706572696f64000000000000000000000000000000000000000000602082015250565b5f610e0d602b8361094d565b9150610e1882610db3565b604082019050919050565b5f6020820190508181035f830152610e3a81610e01565b9050919050565b7f4e487b71000000000000000000000000000000000000000000000000000000005f52601160045260245ffd5b5f610e7882610a2d565b9150610e8383610a2d565b9250828202610e9181610a2d565b91508282048414831517610ea857610ea7610e41565b5b5092915050565b5f610eb982610a2d565b9150610ec483610a2d565b9250828201905080821115610edc57610edb610e41565b5b9291505056fea26469706673582212203f3996e6a2c5eae93c2424aea1770fe0c3513425557811ce91db8ede60a73b9964736f6c634300081a0033",
					"opcodes": "PUSH1 0x80 PUSH1 0x40 MSTORE CALLVALUE DUP1 ISZERO PUSH1 0xE JUMPI PUSH0 DUP1 REVERT JUMPDEST POP CALLER PUSH0 DUP1 PUSH2 0x100 EXP DUP2 SLOAD DUP2 PUSH20 0xFFFFFFFFFFFFFFFFFFFFFFFFFFFFFFFFFFFFFFFF MUL NOT AND SWAP1 DUP4 PUSH20 0xFFFFFFFFFFFFFFFFFFFFFFFFFFFFFFFFFFFFFFFF AND MUL OR SWAP1 SSTORE POP PUSH2 0xF18 DUP1 PUSH2 0x5B PUSH0 CODECOPY PUSH0 RETURN INVALID PUSH1 0x80 PUSH1 0x40 MSTORE PUSH1 0x4 CALLDATASIZE LT PUSH2 0x89 JUMPI PUSH0 CALLDATALOAD PUSH1 0xE0 SHR DUP1 PUSH4 0x481C6A75 GT PUSH2 0x58 JUMPI DUP1 PUSH4 0x481C6A75 EQ PUSH2 0x2DE JUMPI DUP1 PUSH4 0x5EC01E4D EQ PUSH2 0x308 JUMPI DUP1 PUSH4 0x78E97925 EQ PUSH2 0x332 JUMPI DUP1 PUSH4 0xB4FB3EE3 EQ PUSH2 0x35C JUMPI DUP1 PUSH4 0xD99C69E6 EQ PUSH2 0x398 JUMPI PUSH2 0x234 JUMP JUMPDEST DUP1 PUSH4 0x12065FE0 EQ PUSH2 0x238 JUMPI DUP1 PUSH4 0x3197CBB6 EQ PUSH2 0x262 JUMPI DUP1 PUSH4 0x33A99E04 EQ PUSH2 0x28C JUMPI DUP1 PUSH4 0x35C1D349 EQ PUSH2 0x2A2 JUMPI PUSH2 0x234 JUMP JUMPDEST CALLDATASIZE PUSH2 0x234 JUMPI PUSH1 0x3 SLOAD TIMESTAMP LT ISZERO PUSH2 0xD3 JUMPI PUSH1 0x40 MLOAD PUSH32 0x8C379A000000000000000000000000000000000000000000000000000000000 DUP2 MSTORE PUSH1 0x4 ADD PUSH2 0xCA SWAP1 PUSH2 0x9A7 JUMP JUMPDEST PUSH1 0x40 MLOAD DUP1 SWAP2 SUB SWAP1 REVERT JUMPDEST PUSH1 0x4 SLOAD TIMESTAMP GT ISZERO PUSH2 0x118 JUMPI PUSH1 0x40 MLOAD PUSH32 0x8C379A000000000000000000000000000000000000000000000000000000000 DUP2 MSTORE PUSH1 0x4 ADD PUSH2 0x10F SWAP1 PUSH2 0xA0F JUMP JUMPDEST PUSH1 0x40 MLOAD DUP1 SWAP2 SUB SWAP1 REVERT JUMPDEST PUSH8 0xDE0B6B3A7640000 CALLVALUE EQ PUSH2 0x12B JUMPI PUSH0 DUP1 REVERT JUMPDEST PUSH1 0x2 PUSH0 CALLER PUSH20 0xFFFFFFFFFFFFFFFFFFFFFFFFFFFFFFFFFFFFFFFF AND PUSH20 0xFFFFFFFFFFFFFFFFFFFFFFFFFFFFFFFFFFFFFFFF AND DUP2 MSTORE PUSH1 0x20 ADD SWAP1 DUP2 MSTORE PUSH1 0x20 ADD PUSH0 KECCAK256 PUSH0 SWAP1 SLOAD SWAP1 PUSH2 0x100 EXP SWAP1 DIV PUSH1 0xFF AND ISZERO PUSH2 0x17E JUMPI PUSH0 DUP1 REVERT JUMPDEST PUSH1 0x1 CALLER SWAP1 DUP1 PUSH1 0x1 DUP2 SLOAD ADD DUP1 DUP3 SSTORE DUP1 SWAP2 POP POP PUSH1 0x1 SWAP1 SUB SWAP1 PUSH0 MSTORE PUSH1 0x20 PUSH0 KECCAK256 ADD PUSH0 SWAP1 SWAP2 SWAP1 SWAP2 SWAP1 SWAP2 PUSH2 0x100 EXP DUP2 SLOAD DUP2 PUSH20 0xFFFFFFFFFFFFFFFFFFFFFFFFFFFFFFFFFFFFFFFF MUL NOT AND SWAP1 DUP4 PUSH20 0xFFFFFFFFFFFFFFFFFFFFFFFFFFFFFFFFFFFFFFFF AND MUL OR SWAP1 SSTORE POP PUSH1 0x1 PUSH1 0x2 PUSH0 CALLER PUSH20 0xFFFFFFFFFFFFFFFFFFFFFFFFFFFFFFFFFFFFFFFF AND PUSH20 0xFFFFFFFFFFFFFFFFFFFFFFFFFFFFFFFFFFFFFFFF AND DUP2 MSTORE PUSH1 0x20 ADD SWAP1 DUP2 MSTORE PUSH1 0x20 ADD PUSH0 KECCAK256 PUSH0 PUSH2 0x100 EXP DUP2 SLOAD DUP2 PUSH1 0xFF MUL NOT AND SWAP1 DUP4 ISZERO ISZERO MUL OR SWAP1 SSTORE STOP JUMPDEST PUSH0 DUP1 REVERT JUMPDEST CALLVALUE DUP1 ISZERO PUSH2 0x243 JUMPI PUSH0 DUP1 REVERT JUMPDEST POP PUSH2 0x24C PUSH2 0x3C0 JUMP JUMPDEST PUSH1 0x40 MLOAD PUSH2 0x259 SWAP2 SWAP1 PUSH2 0xA45 JUMP JUMPDEST PUSH1 0x40 MLOAD DUP1 SWAP2 SUB SWAP1 RETURN JUMPDEST CALLVALUE DUP1 ISZERO PUSH2 0x26D JUMPI PUSH0 DUP1 REVERT JUMPDEST POP PUSH2 0x276 PUSH2 0x41E JUMP JUMPDEST PUSH1 0x40 MLOAD PUSH2 0x283 SWAP2 SWAP1 PUSH2 0xA45 JUMP JUMPDEST PUSH1 0x40 MLOAD DUP1 SWAP2 SUB SWAP1 RETURN JUMPDEST CALLVALUE DUP1 ISZERO PUSH2 0x297 JUMPI PUSH0 DUP1 REVERT JUMPDEST POP PUSH2 0x2A0 PUSH2 0x424 JUMP JUMPDEST STOP JUMPDEST CALLVALUE DUP1 ISZERO PUSH2 0x2AD JUMPI PUSH0 DUP1 REVERT JUMPDEST POP PUSH2 0x2C8 PUSH1 0x4 DUP1 CALLDATASIZE SUB DUP2 ADD SWAP1 PUSH2 0x2C3 SWAP2 SWAP1 PUSH2 0xA8C JUMP JUMPDEST PUSH2 0x684 JUMP JUMPDEST PUSH1 0x40 MLOAD PUSH2 0x2D5 SWAP2 SWAP1 PUSH2 0xAF6 JUMP JUMPDEST PUSH1 0x40 MLOAD DUP1 SWAP2 SUB SWAP1 RETURN JUMPDEST CALLVALUE DUP1 ISZERO PUSH2 0x2E9 JUMPI PUSH0 DUP1 REVERT JUMPDEST POP PUSH2 0x2F2 PUSH2 0x6BF JUMP JUMPDEST PUSH1 0x40 MLOAD PUSH2 0x2FF SWAP2 SWAP1 PUSH2 0xB2F JUMP JUMPDEST PUSH1 0x40 MLOAD DUP1 SWAP2 SUB SWAP1 RETURN JUMPDEST CALLVALUE DUP1 ISZERO PUSH2 0x313 JUMPI PUSH0 DUP1 REVERT JUMPDEST POP PUSH2 0x31C PUSH2 0x6E2 JUMP JUMPDEST PUSH1 0x40 MLOAD PUSH2 0x329 SWAP2 SWAP1 PUSH2 0xA45 JUMP JUMPDEST PUSH1 0x40 MLOAD DUP1 SWAP2 SUB SWAP1 RETURN JUMPDEST CALLVALUE DUP1 ISZERO PUSH2 0x33D JUMPI PUSH0 DUP1 REVERT JUMPDEST POP PUSH2 0x346 PUSH2 0x71A JUMP JUMPDEST PUSH1 0x40 MLOAD PUSH2 0x353 SWAP2 SWAP1 PUSH2 0xA45 JUMP JUMPDEST PUSH1 0x40 MLOAD DUP1 SWAP2 SUB SWAP1 RETURN JUMPDEST CALLVALUE DUP1 ISZERO PUSH2 0x367 JUMPI PUSH0 DUP1 REVERT JUMPDEST POP PUSH2 0x382 PUSH1 0x4 DUP1 CALLDATASIZE SUB DUP2 ADD SWAP1 PUSH2 0x37D SWAP2 SWAP1 PUSH2 0xB72 JUMP JUMPDEST PUSH2 0x720 JUMP JUMPDEST PUSH1 0x40 MLOAD PUSH2 0x38F SWAP2 SWAP1 PUSH2 0xBB7 JUMP JUMPDEST PUSH1 0x40 MLOAD DUP1 SWAP2 SUB SWAP1 RETURN JUMPDEST CALLVALUE DUP1 ISZERO PUSH2 0x3A3 JUMPI PUSH0 DUP1 REVERT JUMPDEST POP PUSH2 0x3BE PUSH1 0x4 DUP1 CALLDATASIZE SUB DUP2 ADD SWAP1 PUSH2 0x3B9 SWAP2 SWAP1 PUSH2 0xA8C JUMP JUMPDEST PUSH2 0x73D JUMP JUMPDEST STOP JUMPDEST PUSH0 DUP1 PUSH0 SWAP1 SLOAD SWAP1 PUSH2 0x100 EXP SWAP1 DIV PUSH20 0xFFFFFFFFFFFFFFFFFFFFFFFFFFFFFFFFFFFFFFFF AND PUSH20 0xFFFFFFFFFFFFFFFFFFFFFFFFFFFFFFFFFFFFFFFF AND CALLER PUSH20 0xFFFFFFFFFFFFFFFFFFFFFFFFFFFFFFFFFFFFFFFF AND EQ PUSH2 0x418 JUMPI PUSH0 DUP1 REVERT JUMPDEST SELFBALANCE SWAP1 POP SWAP1 JUMP JUMPDEST PUSH1 0x4 SLOAD DUP2 JUMP JUMPDEST PUSH0 DUP1 SLOAD SWAP1 PUSH2 0x100 EXP SWAP1 DIV PUSH20 0xFFFFFFFFFFFFFFFFFFFFFFFFFFFFFFFFFFFFFFFF AND PUSH20 0xFFFFFFFFFFFFFFFFFFFFFFFFFFFFFFFFFFFFFFFF AND CALLER PUSH20 0xFFFFFFFFFFFFFFFFFFFFFFFFFFFFFFFFFFFFFFFF AND EQ PUSH2 0x47A JUMPI PUSH0 DUP1 REVERT JUMPDEST PUSH1 0x4 SLOAD TIMESTAMP GT PUSH2 0x4BE JUMPI PUSH1 0x40 MLOAD PUSH32 0x8C379A000000000000000000000000000000000000000000000000000000000 DUP2 MSTORE PUSH1 0x4 ADD PUSH2 0x4B5 SWAP1 PUSH2 0xC1A JUMP JUMPDEST PUSH1 0x40 MLOAD DUP1 SWAP2 SUB SWAP1 REVERT JUMPDEST PUSH1 0x3 PUSH1 0x1 DUP1 SLOAD SWAP1 POP LT ISZERO PUSH2 0x507 JUMPI PUSH1 0x40 MLOAD PUSH32 0x8C379A000000000000000000000000000000000000000000000000000000000 DUP2 MSTORE PUSH1 0x4 ADD PUSH2 0x4FE SWAP1 PUSH2 0xC82 JUMP JUMPDEST PUSH1 0x40 MLOAD DUP1 SWAP2 SUB SWAP1 REVERT JUMPDEST PUSH0 DUP1 SLOAD SWAP1 PUSH2 0x100 EXP SWAP1 DIV PUSH20 0xFFFFFFFFFFFFFFFFFFFFFFFFFFFFFFFFFFFFFFFF AND PUSH20 0xFFFFFFFFFFFFFFFFFFFFFFFFFFFFFFFFFFFFFFFF AND CALLER PUSH20 0xFFFFFFFFFFFFFFFFFFFFFFFFFFFFFFFFFFFFFFFF AND EQ PUSH2 0x55D JUMPI PUSH0 DUP1 REVERT JUMPDEST PUSH1 0x3 PUSH1 0x1 DUP1 SLOAD SWAP1 POP LT ISZERO PUSH2 0x56F JUMPI PUSH0 DUP1 REVERT JUMPDEST PUSH0 PUSH2 0x578 PUSH2 0x6E2 JUMP JUMPDEST SWAP1 POP PUSH0 DUP1 PUSH1 0x1 DUP1 SLOAD SWAP1 POP DUP4 PUSH2 0x58D SWAP2 SWAP1 PUSH2 0xCCD JUMP JUMPDEST SWAP1 POP PUSH1 0x1 DUP2 DUP2 SLOAD DUP2 LT PUSH2 0x5A3 JUMPI PUSH2 0x5A2 PUSH2 0xCFD JUMP JUMPDEST JUMPDEST SWAP1 PUSH0 MSTORE PUSH1 0x20 PUSH0 KECCAK256 ADD PUSH0 SWAP1 SLOAD SWAP1 PUSH2 0x100 EXP SWAP1 DIV PUSH20 0xFFFFFFFFFFFFFFFFFFFFFFFFFFFFFFFFFFFFFFFF AND SWAP2 POP DUP2 PUSH20 0xFFFFFFFFFFFFFFFFFFFFFFFFFFFFFFFFFFFFFFFF AND PUSH2 0x8FC PUSH2 0x5EF PUSH2 0x3C0 JUMP JUMPDEST SWAP1 DUP2 ISZERO MUL SWAP1 PUSH1 0x40 MLOAD PUSH0 PUSH1 0x40 MLOAD DUP1 DUP4 SUB DUP2 DUP6 DUP9 DUP9 CALL SWAP4 POP POP POP POP ISZERO DUP1 ISZERO PUSH2 0x617 JUMPI RETURNDATASIZE PUSH0 DUP1 RETURNDATACOPY RETURNDATASIZE PUSH0 REVERT JUMPDEST POP PUSH0 PUSH8 0xFFFFFFFFFFFFFFFF DUP2 GT ISZERO PUSH2 0x632 JUMPI PUSH2 0x631 PUSH2 0xD2A JUMP JUMPDEST JUMPDEST PUSH1 0x40 MLOAD SWAP1 DUP1 DUP3 MSTORE DUP1 PUSH1 0x20 MUL PUSH1 0x20 ADD DUP3 ADD PUSH1 0x40 MSTORE DUP1 ISZERO PUSH2 0x660 JUMPI DUP2 PUSH1 0x20 ADD PUSH1 0x20 DUP3 MUL DUP1 CALLDATASIZE DUP4 CALLDATACOPY DUP1 DUP3 ADD SWAP2 POP POP SWAP1 POP JUMPDEST POP PUSH1 0x1 SWAP1 DUP1 MLOAD SWAP1 PUSH1 0x20 ADD SWAP1 PUSH2 0x676 SWAP3 SWAP2 SWAP1 PUSH2 0x8AB JUMP JUMPDEST POP PUSH2 0x67F PUSH2 0x7FD JUMP JUMPDEST POP POP POP JUMP JUMPDEST PUSH1 0x1 DUP2 DUP2 SLOAD DUP2 LT PUSH2 0x693 JUMPI PUSH0 DUP1 REVERT JUMPDEST SWAP1 PUSH0 MSTORE PUSH1 0x20 PUSH0 KECCAK256 ADD PUSH0 SWAP2 POP SLOAD SWAP1 PUSH2 0x100 EXP SWAP1 DIV PUSH20 0xFFFFFFFFFFFFFFFFFFFFFFFFFFFFFFFFFFFFFFFF AND DUP2 JUMP JUMPDEST PUSH0 DUP1 SLOAD SWAP1 PUSH2 0x100 EXP SWAP1 DIV PUSH20 0xFFFFFFFFFFFFFFFFFFFFFFFFFFFFFFFFFFFFFFFF AND DUP2 JUMP JUMPDEST PUSH0 PREVRANDAO TIMESTAMP PUSH1 0x1 DUP1 SLOAD SWAP1 POP PUSH1 0x40 MLOAD PUSH1 0x20 ADD PUSH2 0x6FD SWAP4 SWAP3 SWAP2 SWAP1 PUSH2 0xD77 JUMP JUMPDEST PUSH1 0x40 MLOAD PUSH1 0x20 DUP2 DUP4 SUB SUB DUP2 MSTORE SWAP1 PUSH1 0x40 MSTORE DUP1 MLOAD SWAP1 PUSH1 0x20 ADD KECCAK256 PUSH0 SHR SWAP1 POP SWAP1 JUMP JUMPDEST PUSH1 0x3 SLOAD DUP2 JUMP JUMPDEST PUSH1 0x2 PUSH1 0x20 MSTORE DUP1 PUSH0 MSTORE PUSH1 0x40 PUSH0 KECCAK256 PUSH0 SWAP2 POP SLOAD SWAP1 PUSH2 0x100 EXP SWAP1 DIV PUSH1 0xFF AND DUP2 JUMP JUMPDEST PUSH0 DUP1 SLOAD SWAP1 PUSH2 0x100 EXP SWAP1 DIV PUSH20 0xFFFFFFFFFFFFFFFFFFFFFFFFFFFFFFFFFFFFFFFF AND PUSH20 0xFFFFFFFFFFFFFFFFFFFFFFFFFFFFFFFFFFFFFFFF AND CALLER PUSH20 0xFFFFFFFFFFFFFFFFFFFFFFFFFFFFFFFFFFFFFFFF AND EQ PUSH2 0x7CA JUMPI PUSH1 0x40 MLOAD PUSH32 0x8C379A000000000000000000000000000000000000000000000000000000000 DUP2 MSTORE PUSH1 0x4 ADD PUSH2 0x7C1 SWAP1 PUSH2 0xE23 JUMP JUMPDEST PUSH1 0x40 MLOAD DUP1 SWAP2 SUB SWAP1 REVERT JUMPDEST PUSH0 DUP2 GT PUSH2 0x7D5 JUMPI PUSH0 DUP1 REVERT JUMPDEST TIMESTAMP PUSH1 0x3 DUP2 SWAP1 SSTORE POP PUSH1 0x3C DUP2 PUSH2 0x7E9 SWAP2 SWAP1 PUSH2 0xE6E JUMP JUMPDEST TIMESTAMP PUSH2 0x7F4 SWAP2 SWAP1 PUSH2 0xEAF JUMP JUMPDEST PUSH1 0x4 DUP2 SWAP1 SSTORE POP POP JUMP JUMPDEST PUSH0 JUMPDEST PUSH1 0x1 DUP1 SLOAD SWAP1 POP DUP2 LT ISZERO PUSH2 0x8A8 JUMPI PUSH0 PUSH1 0x2 PUSH0 PUSH1 0x1 DUP5 DUP2 SLOAD DUP2 LT PUSH2 0x824 JUMPI PUSH2 0x823 PUSH2 0xCFD JUMP JUMPDEST JUMPDEST SWAP1 PUSH0 MSTORE PUSH1 0x20 PUSH0 KECCAK256 ADD PUSH0 SWAP1 SLOAD SWAP1 PUSH2 0x100 EXP SWAP1 DIV PUSH20 0xFFFFFFFFFFFFFFFFFFFFFFFFFFFFFFFFFFFFFFFF AND PUSH20 0xFFFFFFFFFFFFFFFFFFFFFFFFFFFFFFFFFFFFFFFF AND PUSH20 0xFFFFFFFFFFFFFFFFFFFFFFFFFFFFFFFFFFFFFFFF AND DUP2 MSTORE PUSH1 0x20 ADD SWAP1 DUP2 MSTORE PUSH1 0x20 ADD PUSH0 KECCAK256 PUSH0 PUSH2 0x100 EXP DUP2 SLOAD DUP2 PUSH1 0xFF MUL NOT AND SWAP1 DUP4 ISZERO ISZERO MUL OR SWAP1 SSTORE POP DUP1 DUP1 PUSH1 0x1 ADD SWAP2 POP POP PUSH2 0x7FF JUMP JUMPDEST POP JUMP JUMPDEST DUP3 DUP1 SLOAD DUP3 DUP3 SSTORE SWAP1 PUSH0 MSTORE PUSH1 0x20 PUSH0 KECCAK256 SWAP1 DUP2 ADD SWAP3 DUP3 ISZERO PUSH2 0x921 JUMPI SWAP2 PUSH1 0x20 MUL DUP3 ADD JUMPDEST DUP3 DUP2 GT ISZERO PUSH2 0x920 JUMPI DUP3 MLOAD DUP3 PUSH0 PUSH2 0x100 EXP DUP2 SLOAD DUP2 PUSH20 0xFFFFFFFFFFFFFFFFFFFFFFFFFFFFFFFFFFFFFFFF MUL NOT AND SWAP1 DUP4 PUSH20 0xFFFFFFFFFFFFFFFFFFFFFFFFFFFFFFFFFFFFFFFF AND MUL OR SWAP1 SSTORE POP SWAP2 PUSH1 0x20 ADD SWAP2 SWAP1 PUSH1 0x1 ADD SWAP1 PUSH2 0x8C9 JUMP JUMPDEST JUMPDEST POP SWAP1 POP PUSH2 0x92E SWAP2 SWAP1 PUSH2 0x932 JUMP JUMPDEST POP SWAP1 JUMP JUMPDEST JUMPDEST DUP1 DUP3 GT ISZERO PUSH2 0x949 JUMPI PUSH0 DUP2 PUSH0 SWAP1 SSTORE POP PUSH1 0x1 ADD PUSH2 0x933 JUMP JUMPDEST POP SWAP1 JUMP JUMPDEST PUSH0 DUP3 DUP3 MSTORE PUSH1 0x20 DUP3 ADD SWAP1 POP SWAP3 SWAP2 POP POP JUMP JUMPDEST PUSH32 0x4C6F747465727920686173206E6F742073746172746564207965740000000000 PUSH0 DUP3 ADD MSTORE POP JUMP JUMPDEST PUSH0 PUSH2 0x991 PUSH1 0x1B DUP4 PUSH2 0x94D JUMP JUMPDEST SWAP2 POP PUSH2 0x99C DUP3 PUSH2 0x95D JUMP JUMPDEST PUSH1 0x20 DUP3 ADD SWAP1 POP SWAP2 SWAP1 POP JUMP JUMPDEST PUSH0 PUSH1 0x20 DUP3 ADD SWAP1 POP DUP2 DUP2 SUB PUSH0 DUP4 ADD MSTORE PUSH2 0x9BE DUP2 PUSH2 0x985 JUMP JUMPDEST SWAP1 POP SWAP2 SWAP1 POP JUMP JUMPDEST PUSH32 0x4C6F74746572792068617320656E646564000000000000000000000000000000 PUSH0 DUP3 ADD MSTORE POP JUMP JUMPDEST PUSH0 PUSH2 0x9F9 PUSH1 0x11 DUP4 PUSH2 0x94D JUMP JUMPDEST SWAP2 POP PUSH2 0xA04 DUP3 PUSH2 0x9C5 JUMP JUMPDEST PUSH1 0x20 DUP3 ADD SWAP1 POP SWAP2 SWAP1 POP JUMP JUMPDEST PUSH0 PUSH1 0x20 DUP3 ADD SWAP1 POP DUP2 DUP2 SUB PUSH0 DUP4 ADD MSTORE PUSH2 0xA26 DUP2 PUSH2 0x9ED JUMP JUMPDEST SWAP1 POP SWAP2 SWAP1 POP JUMP JUMPDEST PUSH0 DUP2 SWAP1 POP SWAP2 SWAP1 POP JUMP JUMPDEST PUSH2 0xA3F DUP2 PUSH2 0xA2D JUMP JUMPDEST DUP3 MSTORE POP POP JUMP JUMPDEST PUSH0 PUSH1 0x20 DUP3 ADD SWAP1 POP PUSH2 0xA58 PUSH0 DUP4 ADD DUP5 PUSH2 0xA36 JUMP JUMPDEST SWAP3 SWAP2 POP POP JUMP JUMPDEST PUSH0 DUP1 REVERT JUMPDEST PUSH2 0xA6B DUP2 PUSH2 0xA2D JUMP JUMPDEST DUP2 EQ PUSH2 0xA75 JUMPI PUSH0 DUP1 REVERT JUMPDEST POP JUMP JUMPDEST PUSH0 DUP2 CALLDATALOAD SWAP1 POP PUSH2 0xA86 DUP2 PUSH2 0xA62 JUMP JUMPDEST SWAP3 SWAP2 POP POP JUMP JUMPDEST PUSH0 PUSH1 0x20 DUP3 DUP5 SUB SLT ISZERO PUSH2 0xAA1 JUMPI PUSH2 0xAA0 PUSH2 0xA5E JUMP JUMPDEST JUMPDEST PUSH0 PUSH2 0xAAE DUP5 DUP3 DUP6 ADD PUSH2 0xA78 JUMP JUMPDEST SWAP2 POP POP SWAP3 SWAP2 POP POP JUMP JUMPDEST PUSH0 PUSH20 0xFFFFFFFFFFFFFFFFFFFFFFFFFFFFFFFFFFFFFFFF DUP3 AND SWAP1 POP SWAP2 SWAP1 POP JUMP JUMPDEST PUSH0 PUSH2 0xAE0 DUP3 PUSH2 0xAB7 JUMP JUMPDEST SWAP1 POP SWAP2 SWAP1 POP JUMP JUMPDEST PUSH2 0xAF0 DUP2 PUSH2 0xAD6 JUMP JUMPDEST DUP3 MSTORE POP POP JUMP JUMPDEST PUSH0 PUSH1 0x20 DUP3 ADD SWAP1 POP PUSH2 0xB09 PUSH0 DUP4 ADD DUP5 PUSH2 0xAE7 JUMP JUMPDEST SWAP3 SWAP2 POP POP JUMP JUMPDEST PUSH0 PUSH2 0xB19 DUP3 PUSH2 0xAB7 JUMP JUMPDEST SWAP1 POP SWAP2 SWAP1 POP JUMP JUMPDEST PUSH2 0xB29 DUP2 PUSH2 0xB0F JUMP JUMPDEST DUP3 MSTORE POP POP JUMP JUMPDEST PUSH0 PUSH1 0x20 DUP3 ADD SWAP1 POP PUSH2 0xB42 PUSH0 DUP4 ADD DUP5 PUSH2 0xB20 JUMP JUMPDEST SWAP3 SWAP2 POP POP JUMP JUMPDEST PUSH2 0xB51 DUP2 PUSH2 0xB0F JUMP JUMPDEST DUP2 EQ PUSH2 0xB5B JUMPI PUSH0 DUP1 REVERT JUMPDEST POP JUMP JUMPDEST PUSH0 DUP2 CALLDATALOAD SWAP1 POP PUSH2 0xB6C DUP2 PUSH2 0xB48 JUMP JUMPDEST SWAP3 SWAP2 POP POP JUMP JUMPDEST PUSH0 PUSH1 0x20 DUP3 DUP5 SUB SLT ISZERO PUSH2 0xB87 JUMPI PUSH2 0xB86 PUSH2 0xA5E JUMP JUMPDEST JUMPDEST PUSH0 PUSH2 0xB94 DUP5 DUP3 DUP6 ADD PUSH2 0xB5E JUMP JUMPDEST SWAP2 POP POP SWAP3 SWAP2 POP POP JUMP JUMPDEST PUSH0 DUP2 ISZERO ISZERO SWAP1 POP SWAP2 SWAP1 POP JUMP JUMPDEST PUSH2 0xBB1 DUP2 PUSH2 0xB9D JUMP JUMPDEST DUP3 MSTORE POP POP JUMP JUMPDEST PUSH0 PUSH1 0x20 DUP3 ADD SWAP1 POP PUSH2 0xBCA PUSH0 DUP4 ADD DUP5 PUSH2 0xBA8 JUMP JUMPDEST SWAP3 SWAP2 POP POP JUMP JUMPDEST PUSH32 0x4C6F747465727920706572696F6420686173206E6F7420656E64656420796574 PUSH0 DUP3 ADD MSTORE POP JUMP JUMPDEST PUSH0 PUSH2 0xC04 PUSH1 0x20 DUP4 PUSH2 0x94D JUMP JUMPDEST SWAP2 POP PUSH2 0xC0F DUP3 PUSH2 0xBD0 JUMP JUMPDEST PUSH1 0x20 DUP3 ADD SWAP1 POP SWAP2 SWAP1 POP JUMP JUMPDEST PUSH0 PUSH1 0x20 DUP3 ADD SWAP1 POP DUP2 DUP2 SUB PUSH0 DUP4 ADD MSTORE PUSH2 0xC31 DUP2 PUSH2 0xBF8 JUMP JUMPDEST SWAP1 POP SWAP2 SWAP1 POP JUMP JUMPDEST PUSH32 0x4174206C656173742033207061727469636970616E7473207265717569726564 PUSH0 DUP3 ADD MSTORE POP JUMP JUMPDEST PUSH0 PUSH2 0xC6C PUSH1 0x20 DUP4 PUSH2 0x94D JUMP JUMPDEST SWAP2 POP PUSH2 0xC77 DUP3 PUSH2 0xC38 JUMP JUMPDEST PUSH1 0x20 DUP3 ADD SWAP1 POP SWAP2 SWAP1 POP JUMP JUMPDEST PUSH0 PUSH1 0x20 DUP3 ADD SWAP1 POP DUP2 DUP2 SUB PUSH0 DUP4 ADD MSTORE PUSH2 0xC99 DUP2 PUSH2 0xC60 JUMP JUMPDEST SWAP1 POP SWAP2 SWAP1 POP JUMP JUMPDEST PUSH32 0x4E487B7100000000000000000000000000000000000000000000000000000000 PUSH0 MSTORE PUSH1 0x12 PUSH1 0x4 MSTORE PUSH1 0x24 PUSH0 REVERT JUMPDEST PUSH0 PUSH2 0xCD7 DUP3 PUSH2 0xA2D JUMP JUMPDEST SWAP2 POP PUSH2 0xCE2 DUP4 PUSH2 0xA2D JUMP JUMPDEST SWAP3 POP DUP3 PUSH2 0xCF2 JUMPI PUSH2 0xCF1 PUSH2 0xCA0 JUMP JUMPDEST JUMPDEST DUP3 DUP3 MOD SWAP1 POP SWAP3 SWAP2 POP POP JUMP JUMPDEST PUSH32 0x4E487B7100000000000000000000000000000000000000000000000000000000 PUSH0 MSTORE PUSH1 0x32 PUSH1 0x4 MSTORE PUSH1 0x24 PUSH0 REVERT JUMPDEST PUSH32 0x4E487B7100000000000000000000000000000000000000000000000000000000 PUSH0 MSTORE PUSH1 0x41 PUSH1 0x4 MSTORE PUSH1 0x24 PUSH0 REVERT JUMPDEST PUSH0 DUP2 SWAP1 POP SWAP2 SWAP1 POP JUMP JUMPDEST PUSH2 0xD71 PUSH2 0xD6C DUP3 PUSH2 0xA2D JUMP JUMPDEST PUSH2 0xD57 JUMP JUMPDEST DUP3 MSTORE POP POP JUMP JUMPDEST PUSH0 PUSH2 0xD82 DUP3 DUP7 PUSH2 0xD60 JUMP JUMPDEST PUSH1 0x20 DUP3 ADD SWAP2 POP PUSH2 0xD92 DUP3 DUP6 PUSH2 0xD60 JUMP JUMPDEST PUSH1 0x20 DUP3 ADD SWAP2 POP PUSH2 0xDA2 DUP3 DUP5 PUSH2 0xD60 JUMP JUMPDEST PUSH1 0x20 DUP3 ADD SWAP2 POP DUP2 SWAP1 POP SWAP5 SWAP4 POP POP POP POP JUMP JUMPDEST PUSH32 0x4F6E6C7920746865206D616E616765722063616E2073657420746865206C6F74 PUSH0 DUP3 ADD MSTORE PUSH32 0x7465727920706572696F64000000000000000000000000000000000000000000 PUSH1 0x20 DUP3 ADD MSTORE POP JUMP JUMPDEST PUSH0 PUSH2 0xE0D PUSH1 0x2B DUP4 PUSH2 0x94D JUMP JUMPDEST SWAP2 POP PUSH2 0xE18 DUP3 PUSH2 0xDB3 JUMP JUMPDEST PUSH1 0x40 DUP3 ADD SWAP1 POP SWAP2 SWAP1 POP JUMP JUMPDEST PUSH0 PUSH1 0x20 DUP3 ADD SWAP1 POP DUP2 DUP2 SUB PUSH0 DUP4 ADD MSTORE PUSH2 0xE3A DUP2 PUSH2 0xE01 JUMP JUMPDEST SWAP1 POP SWAP2 SWAP1 POP JUMP JUMPDEST PUSH32 0x4E487B7100000000000000000000000000000000000000000000000000000000 PUSH0 MSTORE PUSH1 0x11 PUSH1 0x4 MSTORE PUSH1 0x24 PUSH0 REVERT JUMPDEST PUSH0 PUSH2 0xE78 DUP3 PUSH2 0xA2D JUMP JUMPDEST SWAP2 POP PUSH2 0xE83 DUP4 PUSH2 0xA2D JUMP JUMPDEST SWAP3 POP DUP3 DUP3 MUL PUSH2 0xE91 DUP2 PUSH2 0xA2D JUMP JUMPDEST SWAP2 POP DUP3 DUP3 DIV DUP5 EQ DUP4 ISZERO OR PUSH2 0xEA8 JUMPI PUSH2 0xEA7 PUSH2 0xE41 JUMP JUMPDEST JUMPDEST POP SWAP3 SWAP2 POP POP JUMP JUMPDEST PUSH0 PUSH2 0xEB9 DUP3 PUSH2 0xA2D JUMP JUMPDEST SWAP2 POP PUSH2 0xEC4 DUP4 PUSH2 0xA2D JUMP JUMPDEST SWAP3 POP DUP3 DUP3 ADD SWAP1 POP DUP1 DUP3 GT ISZERO PUSH2 0xEDC JUMPI PUSH2 0xEDB PUSH2 0xE41 JUMP JUMPDEST JUMPDEST SWAP3 SWAP2 POP POP JUMP INVALID LOG2 PUSH5 0x6970667358 0x22 SLT KECCAK256 EXTCODEHASH CODECOPY SWAP7 0xE6 LOG2 0xC5 0xEA 0xE9 EXTCODECOPY 0x24 0x24 0xAE LOG1 PUSH24 0xFE0C3513425557811CE91DB8EDE60A73B9964736F6C6343 STOP ADDMOD BYTE STOP CALLER "
				},
				"gasEstimates": {
					"creation": {
						"codeDepositCost": "772800",
						"executionCost": "25068",
						"totalCost": "797868"
					},
					"external": {
						"endTime()": "2448",
						"getBalance()": "2504",
						"hasParticipated(address)": "2899",
						"manager()": "2505",
						"participants(uint256)": "5011",
						"random()": "infinite",
						"selectWinner()": "infinite",
						"setLotteryPeriod(uint256)": "infinite",
						"startTime()": "2469"
					},
					"internal": {
						"resetParticipation()": "infinite"
					}
				},
				"methodIdentifiers": {
					"endTime()": "3197cbb6",
					"getBalance()": "12065fe0",
					"hasParticipated(address)": "b4fb3ee3",
					"manager()": "481c6a75",
					"participants(uint256)": "35c1d349",
					"random()": "5ec01e4d",
					"selectWinner()": "33a99e04",
					"setLotteryPeriod(uint256)": "d99c69e6",
					"startTime()": "78e97925"
				}
			},
			"storageLayout": {
				"storage": [
					{
						"astId": 3,
						"contract": "lottery.sol:Lottery",
						"label": "manager",
						"offset": 0,
						"slot": "0",
						"type": "t_address"
					},
					{
						"astId": 6,
						"contract": "lottery.sol:Lottery",
						"label": "participants",
						"offset": 0,
						"slot": "1",
						"type": "t_array(t_address_payable)dyn_storage"
					},
					{
						"astId": 10,
						"contract": "lottery.sol:Lottery",
						"label": "hasParticipated",
						"offset": 0,
						"slot": "2",
						"type": "t_mapping(t_address,t_bool)"
					},
					{
						"astId": 12,
						"contract": "lottery.sol:Lottery",
						"label": "startTime",
						"offset": 0,
						"slot": "3",
						"type": "t_uint256"
					},
					{
						"astId": 14,
						"contract": "lottery.sol:Lottery",
						"label": "endTime",
						"offset": 0,
						"slot": "4",
						"type": "t_uint256"
					}
				],
				"types": {
					"t_address": {
						"encoding": "inplace",
						"label": "address",
						"numberOfBytes": "20"
					},
					"t_address_payable": {
						"encoding": "inplace",
						"label": "address payable",
						"numberOfBytes": "20"
					},
					"t_array(t_address_payable)dyn_storage": {
						"base": "t_address_payable",
						"encoding": "dynamic_array",
						"label": "address payable[]",
						"numberOfBytes": "32"
					},
					"t_bool": {
						"encoding": "inplace",
						"label": "bool",
						"numberOfBytes": "1"
					},
					"t_mapping(t_address,t_bool)": {
						"encoding": "mapping",
						"key": "t_address",
						"label": "mapping(address => bool)",
						"numberOfBytes": "32",
						"value": "t_bool"
					},
					"t_uint256": {
						"encoding": "inplace",
						"label": "uint256",
						"numberOfBytes": "32"
					}
				}
			},
			"userdoc": {
				"kind": "user",
				"methods": {},
				"version": 1
			}
		}
	}
}